:020000040800F2
:10000000A80C002091010008B52400080D1D00086F
:10001000B12400081B0500086D290008000000003D
:10002000000000000000000000000000E5240008BF
:100030001F05000800000000B9240008E72400089C
:10004000AB010008AB010008AB010008AB010008E0
:10005000AB010008AB010008AB010008AB010008D0
:10006000AB010008AB010008AB010008AB010008C0
:10007000AB010008AB010008AB010008AB010008B0
:10008000AB010008AB010008AB010008AB010008A0
:10009000AB010008AB010008AB010008AB01000890
:1000A000AB010008AB010008AB010008AB01000880
:1000B000AB010008AB010008AB010008AB01000870
:1000C000AB010008AB010008AB010008AB01000860
:1000D000AB010008AB010008AB010008AB01000850
:1000E000AB010008AB010008AB01000800F002F80A
:1000F00000F03FF80AA090E8000C82448344AAF183
:100100000107DA4501D100F034F8AFF2090EBAE880
:100110000F0013F0010F18BFFB1A43F0010318473B
:10012000DC660000FC660000103A24BF78C878C185
:10013000FAD8520724BF30C830C144BF04680C60ED
:10014000704700000023002400250026103A28BF35
:1001500078C1FBD8520728BF30C148BF0B60704739
:10016000732900F09C81002070471FB51FBD10B59A
:1001700010BD00F098F91146FFF7F7FF02F0E8FC18
:1001800000F0B6F903B4FFF7F2FF03BC00F0BEF9CC
:100190000948804709480047FEE7FEE7FEE7FEE71B
:1001A000FEE7FEE7FEE7FEE7FEE7FEE70448054957
:1001B000054A064B7047000055250008ED00000871
:1001C000A8060020A80C0020A8080020A8080020ED
:1001D0000FB41CB50C0007AA009001D02044401EAB
:1001E000074B7B4469460190069800F026F9002CE5
:1001F00003D06946002000F033F91CBC5DF814FB05
:10020000850200002DE9F0410E46044600202062E0
:100210002046E168884730B3252805D0D4E901217C
:100220009047206A401CF2E7E16820460027884793
:10023000050018D0A5F14100192802D820354FF447
:1002400000673246294620462760FFF789FF40B104
:10025000012804D0F61D26F007060836D8E7361D1B
:10026000D6E72846DAE7206ABDE8F08170B50C468B
:100270000546012A05D02878800600D5EA690023C2
:1002800002E0012305E05B1C934202D2E05C0028FF
:10029000F9D1A869E618C01AA861286A184428622A
:1002A0002846AFF3008004E0D5E9012114F8010BE2
:1002B0009047B442F8D32846AFF3008070BD4FF0AA
:1002C00000020429C0F0128010F0030C00F01B8023
:1002D000CCF1040CBCF1020F18BF00F8012BA8BF31
:1002E00020F8022BA1EB0C0100F00DB85FEAC17CF5
:1002F00024BF00F8012B00F8012B48BF00F8012BA8
:1003000070474FF0000200B51346944696462039D8
:1003100022BFA0E80C50A0E80C50B1F12001BFF4BE
:10032000F7AF090728BFA0E80C5048BF0CC05DF824
:1003300004EB890028BF40F8042B08BF704748BF72
:1003400020F8022B11F0804F18BF00F8012B7047E6
:1003500010B5044610F0030F08BF11F0030F40F072
:1003600015804FF0013E121FC0F20E8051F8043B81
:10037000A3EB0E0C2CEA030C1CEACE1C08BF40F8C1
:10038000043BF0D0A1F1040102F10402521E08DB8B
:1003900011F8013B002B00F8013BF7D11146FFF7A4
:1003A0008EFF204610BD00004FF0013C50F8042B9A
:1003B00051F8043B9A4221D1A2EB0C03934313EA78
:1003C000CC1317D150F8042B51F8043B9A4215D1A5
:1003D000A2EB0C03934313EACC130BD150F8042B7C
:1003E00051F8043B9A4209D1A2EB0C03934313EA60
:1003F000CC13DBD04FF00000704700BFD01A01BA19
:10040000B1FA81F101F0180122FA01F0CB40C1F1FB
:100410002001DBB2C0B2C01A2CFA01F3D11A914309
:1004200011EAC311E6D1704770477047704700006A
:1004300001694A1C02610878704700B58FB0CDE9A8
:1004400001310021059105497944CDE90310114698
:100450006846FFF7D7FE0FB000BD0000E5FFFFFFC5
:100460000A6802F8010B0A607047D1E900239A423A
:1004700002D2531C0B601070704710B5436913B162
:10048000AFF3008001E0FFF7F1FE012010BD12780C
:1004900000F124010A7000224A700122EDE7116880
:1004A0004FF0FF32E9E7754600F02CF8AE46050044
:1004B0006946534620F00700854618B020B5FFF77F
:1004C00075FEBDE820404FF000064FF000074FF0EA
:1004D00000084FF0000B21F00701AC46ACE8C00962
:1004E000ACE8C009ACE8C009ACE8C0098D4670476B
:1004F00010B50446AFF300802046BDE81040FFF77A
:1005000041BE000000487047440600200149182001
:10051000ABBEFEE726000200704700BFFEE7704753
:1005200001B5642301226946014801F090FB08BD32
:100530008405002072B600BFFEE7000070B50446D7
:1005400000F0AEF906462546681C10B10448007854
:10055000054400BF00F0A4F9801BA842FAD370BD87
:10056000980000202DE9F8470346002294466EE1EA
:100570004FF0010808FA02F4D1F8008008EA0400FC
:10058000A0427DD1DFF8DCA2D1F80480A8EB0A09F3
:10059000D0453AD014DCB8F1030F50D009DCB8F1E3
:1005A000000F31D0B8F1010F1CD0B8F1020F49D1C2
:1005B00020E0B8F1110F18D0B8F1120F42D11EE0AF
:1005C000B9F5881F25D006DCB9F5803F20D0B9F5F4
:1005D000801F37D11AE0B9F5001F18D0B9F5041FF4
:1005E00030D117E0D1F80CC02DE0D1F80C8008F123
:1005F000040C28E0D1F80C8008F1080C23E0D1F8B5
:100600000C8008F10C0C1EE000BF00BF00BF00BF53
:1006100000BF00BFD1F80880B8F1000F02D14FF041
:10062000040C0BE0D1F80880B8F1010F03D14FF0B2
:10063000080C1C6102E04FF0080C5C6103E04FF015
:10064000000C00E000BF00BFFF2801D8984601E081
:1006500003F104084646FF2802D84FEA820803E067
:10066000A2F108084FEA88084746D6F800804FF004
:100670000F0909FA07F928EA09080CFA07F900E056
:1006800088E048EA0908C6F80080D1F8048008F03C
:100690008058B8F1805F7DD100BFDFF8CC81D8F8F9
:1006A000188048F00108DFF8C091C9F81880C846E2
:1006B000D8F8188008F00108CDF8008000BF00BF0E
:1006C0004FEAB9384FEA920958F829504FEA827830
:1006D0004FEA18794FF00F0808FA09F825EA0805DB
:1006E000DFF88881434502D14FF0000816E0DFF8BB
:1006F0008081434502D14FF001080FE0DFF874819B
:10070000434502D14FF0020808E0DFF86C81434511
:1007100002D14FF0030801E04FF004084FEA82795C
:100720004FEA197908FA09F848EA0505DFF84C811B
:100730004FEA920948F82950D1F8048008F480184B
:10074000B8F5801F0AD1DFF83881D8F8008048EA70
:100750000008DFF82C91C9F8008009E0DFF820815B
:10076000D8F8008028EA0008DFF81491C9F8008062
:10077000D1F8048008F40018B8F5001F10D1DFF894
:10078000008108F10408D8F8008048EA0008DFF882
:10079000F09000E05AE009F10409C9F800800DE08A
:1007A000DFF8DC8008F10408D8F8008028EA0008A7
:1007B000DFF8CC9009F10409C9F80080D1F8048071
:1007C00008F40038B8F5003F0ED1DFF8B480A8F186
:1007D0000408D8F8008048EA0008DFF8A490A9F1DE
:1007E0000409C9F800800DE0DFF89480A8F104083E
:1007F000D8F8008028EA0008DFF88490A9F10409FD
:10080000C9F80080D1F8048008F48038B8F5803F3A
:100810000ED1DFF86C80A8F10808D8F8008048EA0B
:100820000008DFF85C90A9F10809C9F800800DE024
:10083000DFF84C80A8F10808D8F8008028EA000802
:10084000DFF83C90A9F10809C9F80080521CD1F8E2
:10085000008028FA02F8B8F1000F7FF489AEBDE8F5
:10086000F88700000000111000100240000801404D
:10087000000C01400010014000140140080001403C
:1008800008040140024693680B400BB1012000E0D0
:10089000002070470AB1016101E00B040361704759
:1008A00001480068704700009000002070B50446C1
:1008B0000CB9012070BD94F83D0028B9002084F8DF
:1008C0003C00204600F044FA242084F83D002068D3
:1008D000006820F00100216808602068006840F48A
:1008E0000040216808602068006820F4004021680A
:1008F000086000F001FC05465C496068884206D843
:100900005B48854201D2012007E0002005E05948FC
:10091000854201D2012000E00020012800D1C9E772
:100920005548B5FBF0F62068406820F03F003043A2
:10093000216848604D496068884201D8701C07E012
:100940004FF4967070434FF47A71B0FBF1F0401C95
:100950002168096A21F03F01084321680862434980
:100960006068884214D8681E61684900B0FBF1F0E5
:10097000401CC0F30B00042801D204203DE0681E97
:1009800061684900B0FBF1F0401CC0F30B0034E09B
:10099000A06838B9681E616801EB4101B0FBF1F055
:1009A000401C0AE0681E616801EBC10202EB011104
:1009B000B0FBF1F0401C40F48040C0F30B0008B9DC
:1009C00001201AE0A06848B9681E616801EB410186
:1009D000B0FBF1F0401CC0F30B000CE0681E616836
:1009E00001EBC10202EB0111B0FBF1F0401CC0F3BE
:1009F0000B0040F4804040F400402168C9694CF687
:100A0000FF72914308432168C861D4E90701084394
:100A10002168096821F0C001084321680860D4E911
:100A2000031008432168896848F2FF329143084364
:100A300021688860D4E9050108432168C96821F06C
:100A4000FF0108432168C8602068006840F0010089
:100A50002168086000202064202084F83D000020E8
:100A6000206384F83E0000BF24E70000A086010058
:100A700080841E0000093D0040420F002DE9F8432C
:100A80000446894616461F46DDF82080FFF708FF1A
:100A9000054694F83D0020287ED1192301225149B2
:100AA0002046009501F057FA10B10220BDE8F88306
:100AB00000BF94F83C00012801D10220F6E7012094
:100AC00084F83C0000BF2068006800F0010028B9ED
:100AD0002068006840F00100216808602068006814
:100AE00020F4006021680860212084F83D00102077
:100AF00084F83E000020206466626785608D208552
:100B00003948E0622B4642464946204601F020F92A
:100B100008B10120CAE700BF0020009020684069AA
:100B2000009020688069009000BF00BF44E02A4622
:100B30004146204601F0EBFA50B1206C042805D163
:100B40002068006840F40070216808600120ADE76B
:100B5000606A007821680861606A401C6062608D8C
:100B6000401E6085208D401E208520684069C0F3AE
:100B7000800070B1208D60B1606A007821680861E2
:100B8000606A401C6062608D401E6085208D401E42
:100B900020852A46414600E022E0204601F0A8F9DF
:100BA00050B1206C042805D12068006840F4007022
:100BB00021680860012079E7208D0028B7D12068DE
:100BC000006840F4007021680860202084F83D002F
:100BD000002084F83E0000BF84F83C0000BF65E7B9
:100BE000022063E7020010000000FFFF2DE9FC5F18
:100BF00004460F4690469946DDE90CAB0E9EFFF782
:100C00004FFE054694F83D0020287DD1192301228E
:100C10004D492046009501F09EF910B10220BDE833
:100C2000FC9F00BF94F83C00012801D10220F6E7A8
:100C3000012084F83C0000BF2068006800F001003B
:100C400028B92068006840F0010021680860206829
:100C5000006820F4006021680860212084F83D00CD
:100C6000402084F83E0000202064C4F824A0A4F8AA
:100C70002AB0608D20853548E0624B4642463946B1
:100C80002046CDE9006501F0C3F808B10120C6E7B0
:100C900031E02A463146204601F039FA50B1206C45
:100CA000042805D12068006840F4007021680860BD
:100CB0000120B4E7606A007821680861606A401C1E
:100CC0006062208D401E2085608D401E60852068FA
:100CD0004069C0F3800070B1208D60B1606A007817
:100CE00021680861606A401C6062208D401E20857A
:100CF000608D401E6085208D0028CAD12A4631466D
:100D0000204601F0F5F800E01CE050B1206C04280A
:100D100005D12068006840F4007021680860012057
:100D20007DE72068006840F400702168086020209A
:100D300084F83D00002084F83E0000BF84F83C00A9
:100D400000BF6CE702206AE7020010000000FFFF0E
:100D500010B586B0044600200290039004900590E0
:100D60001A49206888422FD100BF1948806940F095
:100D70000800174988610846806900F00800019062
:100D800000BF00BF4FF44070029012200390032078
:100D9000059002A90F48FFF7E5FB00BF0E49486820
:100DA00040F0E06040F00200486000BF00BF08482B
:100DB000C06940F400100649C8610846C06900F4E3
:100DC0000010019000BF00BF06B010BD00540040ED
:100DD00000100240000C0140000001400348006880
:100DE00003490978084401490860704790000020D1
:100DF0009800002010B50848006840F0100006492F
:100E00000860032000F098F80F2000F007F800F0C9
:100E10002BF8002010BD00000020024070B50446F1
:100E20000E4800784FF47A71B1FBF0F00C49096874
:100E3000B1FBF0F5284600F0E9FB08B1012070BDD8
:100E4000102C07D200222146501E00F037F805482A
:100E5000046001E00120F2E70020F0E798000020A4
:100E60009C0000209400002008B500BF1148806954
:100E700040F001000F4988610846806900F00100D8
:100E8000009000BF00BF00BF0846C06940F080501E
:100E9000C8610846C06900F08050009000BF00BFE4
:100EA00000BF0549486820F0E06040F000704860ED
:100EB00000BF08BD00100240000001402DE9F05FB6
:100EC00080460D461646002701F052FD074639467A
:100ED0002A46334601F00700C0F1070ABAF1040FB1
:100EE00002D94FF0040A01E0C0F1070AD14600F12F
:100EF000040ABAF1070F02D24FF0000A01E0A0F194
:100F0000030AD4464FF0010A0AFA09FAAAF1010AC3
:100F10000AEA020A0AFA0CFA4FF0010B0BFA0CFB70
:100F2000ABF1010B0BEA030B4AEA0B0421464046E6
:100F300001F026FDBDE8F09F00BF00F00702064B60
:100F400019684FF6FF031940044B0B4343EA022193
:100F5000014B196000BF70470CED00E00000FA057E
:100F600070B504460D460CB9012070BD5A480068A2
:100F700000F00700A8420ED25748006820F0070092
:100F80002843554908600846006800F00700A84259
:100F900001D00120E9E7207800F0020002281DD1ED
:100FA000207800F00400042805D14C48406840F443
:100FB000E0604A494860207800F00800082805D120
:100FC0004648406840F4605044494860434840689F
:100FD00020F0F000A168084340494860207800F004
:100FE000010078B36068012806D13C48006800F42D
:100FF000003090B90120B8E76068022806D1374870
:10100000006800F0007040B90120AEE73348006886
:1010100000F0020008B90120A7E73048406820F03E
:101020000300616808432D494860FFF739FC064614
:1010300009E0FFF735FC801B41F28831884202D974
:10104000032092E707E02548406800F00C00616843
:10105000B0EB810FEDD12048006800F00700A842F6
:101060000ED91D48006820F0070028431A4908607F
:101070000846006800F00700A84201D0012074E78C
:10108000207800F00400042807D11448406820F4B8
:10109000E060E168084311494860207800F00800EA
:1010A000082808D10D48406820F46050216940EAC2
:1010B000C1000A49486000F03FF808494968C1F397
:1010C0000311074A515CC840064908600648006899
:1010D000FFF7A4FE002048E7002002400010024075
:1010E000E46700089C00002094000020014800688C
:1010F000704700009C00002000B5FFF7F7FF04498F
:101100004968C1F30221034A515CC84000BD000098
:1011100000100240F467000800B5FFF7E7FF04493C
:101120004968C1F3C221034A515CC84000BD0000B8
:1011300000100240F467000870B50021002200246E
:1011400000230020134D696801F00C05F5B1042D52
:1011500002D0082D19D101E00F4819E00F4DC1F35D
:101160008346AB5D01F4803555B10A4D6D68C5F31A
:1011700040450B4E725D084D5D43B5FBF2F402E055
:10118000084D03FB05F4204602E000BF024800BF03
:1011900000BF70BD0010024000127A00D267000844
:1011A000E267000800093D00F8B504460CB90120CB
:1011B000F8BD207800F00100002878D0F848406899
:1011C00000F00C0004280CD0F548406800F00C003A
:1011D000082811D1F248406800F48030B0F5803F13
:1011E0000AD1EF48006800F4003000285FD0606842
:1011F00000285CD10120DBE700BF6068B0F5803FCC
:1012000006D1E748006840F48030E549086028E0EE
:10121000606858B9E248006820F48030E04908600E
:101220000846006820F4802008601AE06068B0F585
:10123000A02F0BD1DA48006840F48020D84908601C
:101240000846006840F4803008600AE0D44800682E
:1012500020F48030D24908600846006820F48020DD
:10126000086000BF606888B1FFF71AFB054606E01A
:10127000FFF716FB401B642801D9032098E7C848F4
:10128000006800F400300028F2D010E0FFF708FBFF
:10129000054606E0FFF704FB401B642801D9032044
:1012A00086E7BF48006800F400300028F2D12078BB
:1012B00000F00200022857D1B948406800F00C0045
:1012C00050B1B748406800F00C00082818D1B44865
:1012D000406800F4803098B9B148006800F002001E
:1012E00020B12069012801D0012061E7AC480068E5
:1012F00020F0F800616940EAC100A949086033E0C4
:101300002069E8B10120A7490860FFF7C9FA05463E
:1013100006E0FFF7C5FA401B022801D9032047E782
:101320009F48006800F002000028F2D09C48006846
:1013300020F0F800616940EAC1009949086013E0B3
:10134000002098490860FFF7ABFA054606E0FFF772
:10135000A7FA401B022801D9032029E7904800681A
:1013600000F002000028F2D1207800F008000828E0
:101370002DD1A069B8B101208B490860FFF790FA20
:10138000054606E0FFF78CFA401B022801D903202E
:101390000EE78348406A00F002000028F2D00120E6
:1013A00001F08CF813E000207F490860FFF778FA1D
:1013B000054606E0FFF774FA401B022801D9032016
:1013C000F6E67748406A00F002000028F2D1207863
:1013D00000F00400042873D100277148C06900F0B0
:1013E000805070B900BF6E48C06940F080506C49B1
:1013F000C8610846C06900F08050009000BF00BF7F
:1014000001276A48006800F48070B0B96748006836
:1014100040F4807065490860FFF742FA054606E02F
:10142000FFF73EFA401B642801D90320C0E65F485D
:10143000006800F480700028F2D000BFE068012846
:1014400006D15748006A40F001005549086227E07C
:10145000E06858B95248006A20F00100504908621B
:101460000846006A20F00400086219E0E0680528D8
:101470000BD14B48006A40F0040049490862084615
:10148000006A40F0010008620AE04548006A20F066
:101490000100434908620846006A20F0040008621F
:1014A00000BFE068A0B1FFF7FBF9054609E0FFF7D0
:1014B000F7F9401B41F28831884202D9032077E6D0
:1014C00022E03748006A00F002000028EFD012E066
:1014D000FFF7E6F9054608E0FFF7E2F9401B41F2A5
:1014E0008831884201D9032062E62D48006A00F065
:1014F00002000028F0D1012F05D12948C06920F051
:1015000080502749C86100BFE069C8B324484068DB
:1015100000F00C00082860D0E069022848D10020C3
:1015200020490866FFF7BCF9054606E0FFF7B8F961
:10153000401B022801D903203AE61948006800F050
:1015400000700028F2D1206AB0F5803F07D114481E
:10155000406820F40030A168084311494860D4E98C
:10156000080108430E49496821F4741108430C49E5
:10157000486001200B490866FFF792F9054607E02D
:101580003DE0FFF78DF9401B022801D903200FE64B
:101590000348006800F000700028F2D02FE000003F
:1015A00000100240000042428004424200700040AD
:1015B000002014490866FFF773F9054606E0FFF7B7
:1015C0006FF9401B022801D90320F1E50E4800689D
:1015D00000F000700028F2D111E0E069012800D18C
:1015E000E6E50948466806F48031206A814204D164
:1015F00006F47011606A814201D00120D8E5002014
:10160000D6E50000000042420010024070B50446DA
:101610002546681EB0F1807F01D301200FE0681ECF
:101620004FF0E02148610F214FF0FF3001F0A8F9A1
:1016300000204FF0E021886107200861002070BD84
:1016400010B50346002200BF93F83C00012801D1E9
:10165000022010BD012083F83C0000BF22F0FF00F3
:10166000CC6840EA040222F440708C6840EA04022C
:1016700022F480604C6840EA040222F400600C68A6
:1016800040EA040222F480500C6940EA040222F489
:1016900000504C6940EA040222F48040CC6940EAE0
:1016A00004021868426400BF002083F83C0000BFB9
:1016B00000BFCEE730B502460B4600BF92F83C00B3
:1016C000012801D1022030BD012082F83C0000BF7A
:1016D000022082F83D00106844681068816824F098
:1016E00070041868044310684460104D1068A842E4
:1016F0000BD01068B0F1804F07D00D4D1068A84294
:1017000003D00C4D1068A84205D121F08001586823
:10171000014310688160012082F83D0000BF002075
:1017200082F83C0000BF00BFCDE70000002C014064
:10173000000400400008004010B586B004460020B8
:10174000029003900490059021492068884217D1A7
:1017500000BF2048806940F004001E4988610846A7
:10176000806900F00400019000BF00BF881502905E
:1017700002200390059002A91748FEF7F3FE25E02A
:101780002068B0F1804F21D100BF1248806940F03D
:101790000800104988610846806900F0080001903F
:1017A00000BF00BF0820029002200390059002A90C
:1017B0000A48FEF7D7FE00BF0949486820F4407088
:1017C00040F0E06040F48070486000BF06B010BD9B
:1017D000002C01400010024000080140000C0140B4
:1017E000000001402DE9F04104460D461646002751
:1017F00000BF94F83C00012802D10220BDE8F0812E
:10180000012084F83C0000BF36B1042E1BD0082E06
:1018100031D00C2E5ED145E02946206800F0F0FE64
:101820002068806940F0080021688861206880692C
:1018300020F00400216888612068806929690843D4
:101840002168886148E02946206800F009FF206887
:10185000806940F40060216888612068806920F414
:1018600080602168886120688069296940EA0120D8
:101870002168886130E02946206800F025FF206853
:10188000C06940F008002168C8612068C06920F084
:1018900004002168C8612068C0692969084321687B
:1018A000C86119E02946206800F042FF2068C0693D
:1018B00040F400602168C8612068C06920F480603D
:1018C0002168C8612068C069296940EA012021684F
:1018D000C86101E0012700BF00BF00BF002084F8FD
:1018E0003C0000BF384689E710B504460CB901201A
:1018F00010BD94F83D0028B9002084F83C00204633
:1019000000F026F8022084F83D00211D206800F038
:1019100023FE012084F8460000BF84F83E00012128
:101920003F200155402001554120015500BF00BF17
:10193000012084F8420043200155442001554520F0
:10194000015500BF012084F83D000020D0E70000D1
:1019500008B5124A016891420DD100BF104989694A
:1019600041F400610E4A91611146896901F40061F8
:10197000009100BF11E00168B1F1804F0DD100BFAF
:101980000749C96941F00101054AD1611146C96998
:1019900001F00101009100BF00BF08BD002C014013
:1019A0000010024070B504460D4615B994F83E008B
:1019B0000BE0042D02D13F20005D06E0082D02D18E
:1019C0004020005D01E04120005D012801D00120A0
:1019D00070BD1DB9022084F83E000EE0042D03D135
:1019E00002213F20015508E0082D03D102214020AB
:1019F000015502E0022141200155012229462068BB
:101A000000F0ECFD19492068884201D1012000E076
:101A1000002028B12068406C40F4004021684864F0
:101A20001249206888420BD02068B0F1804F07D05F
:101A30000F492068884203D00E49206888420CD1A3
:101A40002068806800F00706062E0CD02068006829
:101A500040F001002168086005E02068006840F05F
:101A60000100216808600020B2E70000002C01405E
:101A7000000400400008004010B504460CB90120E5
:101A800010BDA06900B100E000BF94F8410028B982
:101A9000002084F84000204600F02AF8242084F832
:101AA00041002068C06820F400502168C8602046CA
:101AB00000F098FE2068006920F4904021680861D9
:101AC0002068406920F02A00216848612068C068C9
:101AD00040F400502168C86000206064202084F831
:101AE000410084F842000020606300BFC8E70000A6
:101AF00010B586B004460020029003900490059033
:101B00001E492068884236D100BF1D48806940F4D4
:101B100080401B4988610846806900F4804001903C
:101B200000BF00BF00BF0846806940F00800886120
:101B30000846806900F00800019000BF00BF402007
:101B40000290022003900320059002A90D48FEF7A1
:101B500009FD8020029000200390049002A909480A
:101B6000FEF700FD00BF0849486840F0E06040F023
:101B70000400486000BF06B010BD000000380140FE
:101B800000100240000C0140000001402DE9F84F18
:101B900004460E46174699464FF0000A94F8420054
:101BA000202852D106B117B90120BDE8F88F0020D6
:101BB0006064222084F8420000202063FEF770FE5B
:101BC0008246A785E785A068B0F5805F04D12069CB
:101BD00010B90025B04602E035464FF000082CE071
:101BE0005346002220212046CDF8009000F078FED8
:101BF00020B1202084F842000320D6E745B92068B0
:101C00004068C0F30800A8F8000008F1020811E0DD
:101C1000A068B0F5805F03D0A06828B9206918B922
:101C200020684068287004E02068406800F07F0069
:101C300028706D1CE08D401EE085E08D0028CFD11E
:101C4000202084F842000020AFE70220ADE72DE914
:101C5000F84F04460E46174699464FF0000A94F88E
:101C60004100202850D106B117B90120BDE8F88FF6
:101C700000206064212084F84100FEF711FE8246B6
:101C8000A784E784A068B0F5805F04D1206910B90B
:101C90000025B04602E035464FF000081EE05346EE
:101CA000002280212046CDF8009000F019FE20B1DE
:101CB000202084F841000320D8E745B9B8F8000097
:101CC000C0F308002168486008F1020803E02878A2
:101CD000216848606D1CE08C401EE084E08C002888
:101CE000DDD15346002240212046CDF8009000F07F
:101CF000F7FD20B1202084F841000320B6E7202022
:101D000084F841000020B1E70220AFE700BFFEE702
:101D1000014608684069C0F38020B0B16FF480606C
:101D20000A68506100200863202081F83D000020EF
:101D300081F83E00086C40F00400086400BF0020F9
:101D400081F83C0000BF012070470020FCE7000044
:101D50002DE9F84304460D4617469846E66A082ED4
:101D600004D0012E02D016F5803F06D1206800680D
:101D700040F480702168086008E0206B122805D1CB
:101D80002068006840F48070216808603B460022AB
:101D90004FF001112046CDF8008000F0DCF860B172
:101DA0002068006800F48070B0F5807F02D14FF4A5
:101DB000007020640320BDE8F8832069B0F5804FEF
:101DC00004D105F0FE002168086112E005F44070BE
:101DD000F02141EAE0102168086143463A460B4988
:101DE000204600F017F908B10120E4E7E8B22168C5
:101DF000086143463A460549891F204600F00AF922
:101E000008B10120D7E70020D5E700000800010055
:101E10002DE9F8430446884615469946DDE90867EA
:101E20002068006840F48070216808603346002212
:101E30004FF001112046009700F08DF860B1206846
:101E4000006800F48070B0F5807F02D14FF400701C
:101E500020640320BDE8F88308F0FE0021680861D3
:101E60003B4632462149204600F0D4F808B1012013
:101E7000F0E700BF002000902068406900902068D3
:101E80008069009000BF00BF3A463146204600F00E
:101E90003EF950B1206C042805D12068006840F458
:101EA0000070216808600120D4E7B9F1010F03D167
:101EB000E8B22168086117E0C5F3072021680861CE
:101EC0003A463146204600F022F950B1206C0428F1
:101ED00005D12068006840F4007021680860012086
:101EE000B8E7E8B2216808610020B3E7020001000A
:101EF00070B504460D46164625E02046FFF708FF5C
:101F000008B1012070BD681CE8B1FEF7C9FC801B58
:101F1000A84200D8BDB920684069C0F3800090B9DC
:101F200000202063202084F83D00002084F83E003B
:101F3000206C40F02000206400BF002084F83C00AA
:101F400000BF0120DEE720684069C0F38000002860
:101F5000D3D00020D6E72DE9F04104460D461746C0
:101F60001E46DDF8188038E0701CA8B3FEF798FC18
:101F7000A0EB0800B04200D876BBC5F307400128AB
:101F80000AD120684069A9B20840A9B2884201D1AB
:101F900001200BE0002009E020688069A9B2084018
:101FA000A9B2884201D1012000E00020B84214D13A
:101FB00000202063202084F83D00002084F83E00AB
:101FC000206C40F02000206400BF002084F83C001A
:101FD00000BF0120BDE8F081FFE7C5F307400128FD
:101FE0000AD120684069A9B20840A9B2884201D14B
:101FF00001200BE0002009E020688069A9B20840B8
:10200000A9B2884201D1012000E00020B842ABD043
:102010000020DFE72DE9F04104460D4616461F4635
:1020200058E020684069C0F38020E8B1206800686B
:1020300040F40070216808606FF480602168486196
:1020400000202063202084F83D00002084F83E001A
:10205000206C40F00400206400BF002084F83C00A5
:1020600000BF0120BDE8F081701C90B3FEF718FCA2
:10207000C01BB04200D866BBC5F3074001280AD197
:1020800020684069A9B20840A9B2884201D1012064
:102090000BE0002009E020688069A9B20840A9B2DD
:1020A000884201D1012000E0002090B90020206387
:1020B000202084F83D00002084F83E00206C40F091
:1020C0002000206400BF002084F83C0000BF0120F5
:1020D000C8E7FFE7C5F3074001280AD12068406937
:1020E000A9B20840A9B2884201D101200BE000202A
:1020F00009E020688069A9B20840A9B2884201D1EC
:10210000012000E0002000288BD00020AAE770B555
:1021100004460D46164625E02046FFF7F9FD08B1B6
:10212000012070BD681CE8B1FEF7BAFB801BA84215
:1021300000D8BDB920684069C0F3C01090B9002034
:102140002063202084F83D00002084F83E00206CAD
:1021500040F02000206400BF002084F83C0000BF55
:102160000120DEE720684069C0F3C0100028D3D00A
:102170000020D6E770B5044600263BE0002509E0C4
:1021800004F1100232F8151054F825000122FEF770
:1021900081FB6D1C042DF3DB04F1100232F81610E4
:1021A00054F826000022FEF775FB00251FE004F11D
:1021B000240232F815100C3A52F82500FEF762FBA3
:1021C000A0B91420FEF7BAF900BF04F1240232F8D6
:1021D00015100C3A52F82500FEF754FB0028F4D0F5
:1021E00006EB460005490844405D70BD6D1C032D9B
:1021F000DDDB761C042EC1DB0020F6E700000020AA
:1022000000B585B00020019002900390049000BFBB
:102210003B48806940F02000394988610846806960
:1022200000F02000009000BF00BF00BF084680699A
:1022300040F0040088610846806900F004000090C6
:1022400000BF00BF00BF0846806940F008008861F9
:102250000846806900F00800009000BF00BF00221F
:102260004FF4D1612748FEF715FB002240F23341BD
:102270002548FEF70FFB06200190002002900390F6
:1022800001A92048FEF76EF94FF4D16001900120BA
:102290000290002003900220049001A91948FEF743
:1022A00061F948F270000190002002900120039033
:1022B00001A91448FEF756F940F23340019001207D
:1022C0000290002003900220049001A90E48FEF71E
:1022D00049F94FF40840019000200290012003903A
:1022E00001A90948FEF73EF94FF440500190002043
:1022F0000290039001A90448FEF734F905B000BD2F
:102300000010024000080140000C014010B50B48CD
:102310000B4908600B484860002109488160C16092
:102320004FF480410161002141618161C16101621D
:10233000FEF7BCFA08B1FEF7FDF810BD00540040EE
:10234000A0040020A086010000B591B000200F90ED
:1023500010901C2108A8FDF7D4FF20216846FDF746
:10236000D0FF2448244908604720486000212248C3
:10237000816040F2E731C16000210161416180214B
:102380008161FFF7B1FA08B1FEF7D4F800200F9091
:1023900010900FA91848FFF78DF908B1FEF7CAF899
:1023A000602008904FF47A70099000200A900B90FA
:1023B0000C900D900E90002208A90F48FFF712FA1A
:1023C00008B1FEF7B7F8002000900190029003904A
:1023D00004904FF40050059000200790694606488D
:1023E000FFF72EF908B1FEF7A5F80348FFF7A4F9A7
:1023F00011B000BD002C0140F404002000B589B0EC
:102400000020079008901C216846FDF77AFF4FF0E6
:1024100080401849086047204860002115488160C5
:1024200040F2E731C1600021016180218161FFF745
:102430005BFA08B1FEF77EF800200790089007A924
:102440000C48FFF737F908B1FEF774F860200090E8
:102450000020019002900490042269460548FFF78D
:10246000C1F908B1FEF766F80248FFF765F909B04F
:1024700000BD00003C05002010B50B480B4908606A
:102480004FF4E1304860002108488160C16001617B
:102490000C21416100218161C161FFF7EDFA08B1B2
:1024A000FEF748F810BD0000003801408405002008
:1024B00000BFFEE700BFFEE77047000008B508490F
:1024C0000968C9084FF47A72B1FBF2F141430091F7
:1024D00000BF00BF00994A1E00920029F9D108BD33
:1024E0009C000020704710B5FEF778FC10BD00B5C9
:1024F0008FB0282105A8FDF704FF14216846FDF7D9
:1025000000FF0120059000040690002007900120A4
:10251000099002200C90C1030D914FF4E0110E912F
:1025200005A8FEF741FE08B1FEF704F80F20009061
:1025300002200190002002904FF480600390002060
:10254000049002216846FEF70BFD08B1FDF7F2FF8B
:102550000FB000BD7047000010B502681C4B9842D8
:1025600008D0B0F1804F05D01A4B984202D01A4BD8
:10257000984203D122F070024B681A43144B9842E0
:1025800008D0B0F1804F05D0124B984202D0124BC8
:10259000984203D122F44072CB681A4322F08003A0
:1025A0004C6943EA040202608B68C3620B68836271
:1025B000074B984201D10B6903630123436103690F
:1025C00003F001031BB1036923F00103036110BD94
:1025D000002C0140000400400008004030B501F02C
:1025E0001F05012404FA05F3046A9C430462046A8B
:1025F00001F01F0502FA05F52C43046230BD00000E
:1026000030B5026A056A25F00105056243688469F0
:1026100024F0700424F003040D682C4322F002021D
:102620008D682A430D4DA84206D100BF22F0080252
:10263000CD682A4322F00402084DA84207D123F4B2
:10264000807323F400734D692B438D692B434360E2
:1026500084614D684563026230BD0000002C01407A
:1026600030B5026A056A25F0100505624368846981
:1026700024F4E04424F440740D6844EA052422F074
:1026800020028D6842EA05120E4DA84207D100BF14
:1026900022F08002CD6842EA051222F04002094D84
:1026A000A84209D123F4806323F400634D6943EA0F
:1026B00085038D6943EA8503436084614D688563C2
:1026C000026230BD002C014030B5026A056A25F473
:1026D000807505624368C46924F0700424F0030423
:1026E0000D682C4322F400728D6842EA05220F4DDA
:1026F000A84207D100BF22F40062CD6842EA052259
:1027000022F48062094DA84209D123F4805323F4B6
:1027100000534D6943EA05138D6943EA051343608D
:10272000C4614D68C563026230BD0000002C0140E9
:1027300030B5036A056A25F4805505624468C269AC
:1027400022F4E04222F440720D6842EA052223F4AA
:1027500000538D6843EA0533064DA84204D124F4A2
:1027600080444D6944EA85144460C2614D68056443
:10277000036230BD002C014000BF00BF02680C3274
:1027800052E8002F22F4907102680C3242E80013E4
:10279000002BF3D100BF00BF00BF0268143252E823
:1027A000002F22F001010268143242E80013002BCE
:1027B000F3D100BF016B01290ED100BF00BF026839
:1027C0000C3252E8002F22F0100102680C3242E86D
:1027D0000013002BF3D100BF202180F8421000210C
:1027E0000163704770B504462168096921F44051BE
:1027F000E2681143226811612269A168114362698C
:1028000041EA02052168C96841F20C6291432943FB
:102810002268D1602168496921F44071A26911439D
:10282000226851612D4A2168914202D1FEF774FC61
:1028300001E0FEF761FC00EBC00101EB00116268F2
:102840009200B1FBF2F100EBC00202EB00126368F0
:102850009B00B2FBF3F26423B2FBF3F202EBC20380
:1028600003EB0212A1EB8201322202EB011164227E
:10287000B1FBF2F101F0F00100EBC00202EB00123B
:1028800063689B00B2FBF3F26423B2FBF3F201EB4B
:10289000021200EBC00101EB001163689B00B1FB69
:1028A000F3F100EBC00303EB00136668B600B3FB63
:1028B000F6F36426B3FBF6F303EBC30606EB031350
:1028C000A1EB8301322303EB01116423B1FBF3F18C
:1028D00001F00F0111442268916070BD0038014081
:1028E0002DE9F84304460D4617469846089E31E008
:1028F000701C70B3FDF7D4FFA0EB0800B04200D805
:1029000016B90320BDE8F8832068C06800F0040011
:10291000F8B1802D1ED0402D1CD020680068C0F377
:10292000C000B0B100BF0020009020680068009097
:1029300020684068009000BF00BF2046FFF71CFFE2
:102940000820606400BF002084F8400000BF012020
:10295000D8E7FFE7206800682840A84201D101209D
:1029600000E00020B842C3D00020CBE700BFFEE764
:1029700002480068C0F30220704700000CED00E040
:1029800010B5002804DB0A07130E054A135406E0AD
:102990000A07140E034A00F00F031B1FD45410BD86
:1029A00000E400E018ED00E070B5054680212846FF
:1029B00000F087F8002404E02021284600F0A4F865
:1029C000641C502CF8DB70BD2DE9F04107460C4625
:1029D000164636B1012E08D0022E0AD0032E10D191
:1029E0000BE004F18000C5B20DE004F1C000C5B2F7
:1029F00009E004F19400C5B205E004F1D400C5B2C9
:102A000001E0BDE8F08100BF2946384600F059F8E2
:102A100000BFF6E710B504463220FDF78FFD3021E8
:102A2000204600F04EF80520FDF788FD30212046B5
:102A300000F047F80120FDF781FD3021204600F02D
:102A400040F80A20FDF77AFD2021204600F039F8F1
:102A50000A20FDF773FD2821204600F032F80120FE
:102A6000FDF76CFD0821204600F02BF80120FDF752
:102A700065FD0121204600F024F80220FDF75EFDEF
:102A80000621204600F01DF80120FDF757FD0C211E
:102A9000204600F016F810BD70B504460D462946D4
:102AA000204600F031F870BD70B505460C4604E0D4
:102AB00014F8011B284600F027F820780028F7D1E9
:102AC00070BD2DE9FC4104460D4605F0F006F020EE
:102AD00000EA051746F00C008DF8040046F00800E7
:102AE0008DF8050047F00C008DF8060047F008004F
:102AF0008DF80700642000902179042301AA206842
:102B0000FDF7BCFFBDE8FC812DE9FC4104460D4604
:102B100005F0F006F02000EA051746F00D008DF8EC
:102B2000040046F009008DF8050047F00D008DF80F
:102B3000060047F009008DF8070064200090217915
:102B4000042301AA2068FDF799FFBDE8FC8100007D
:102B500088B0FEF74FF9FFF7CAFCFFF751FBFFF70C
:102B6000F3FBFFF789FCFFF7D1FBFFF747FC0021E0
:102B7000FB48FEF717FFFA480068406C40F400403D
:102B8000F749096848640421F648FEF70BFFF64848
:102B9000F64908604E2008710846FFF73BFFF248EF
:102BA00001F0BAF8002001F0A7F80021084601F072
:102BB00059F90123EE4806C8EEA001F0EAF90E210A
:102BC000002001F04FF90123E94806C8EDA001F00B
:102BD000E0F91A21002001F045F90123E44806C874
:102BE000ECA001F0D6F9E04801F042F900F0E4FF72
:102BF00001225103EA48FDF74DFE4120FDF790FC0C
:102C00000020049005900690079006200490002074
:102C100005900120069004A9E248FDF7A3FC4FF4BB
:102C200040500490002005900120069004A9DE4841
:102C3000FDF798FC4FF4004004900020059001201F
:102C4000069004A9D848FDF78DFC4FF4004004908D
:102C5000002005900120069004A9D248FDF782FCCF
:102C6000302004900120059000200690022007905B
:102C700004A9CD48FDF776FC00223021CA48FDF7B3
:102C800009FE00F06ABFC948007800282DD14FF432
:102C90000061C548FDF7F6FD38BBB448FFF784FE78
:102CA00000221146B148FFF78FFEC1A1AF48FFF7E0
:102CB000FBFE01220021AD48FFF786FEC0A1AB4814
:102CC000FFF7F2FE00224FF40051B548FDF7E2FD98
:102CD0005520FDF725FC0020BD4908700120B349AF
:102CE0000870FDF7DDFDBB490860B0480078012899
:102CF00054D1B7480078012817D00120B449087092
:102D00009A48FFF751FE002211469848FFF75CFEF3
:102D1000B1A19648FFF7C8FE012200219348FFF7B2
:102D200053FEB1A19148FFF7BFFE40F2E7308C4956
:102D300009684863012251029A48FDF7ABFD002261
:102D40004FF480619748FDF7A5FD02219548FDF7F6
:102D500099FD40B1FDF7A4FD9E490968401A43F66C
:102D60009821884219D900207D49096848630022CA
:102D70004FF400718B48FDF78DFD00224FF4806108
:102D80008848FDF787FD022088490870FDF788FD17
:102D90009049086000208E490870BFE083480078A1
:102DA000022839D18A480078022817D002208849A1
:102DB00008706E48FFF7F8FD002211466B48FFF7D8
:102DC00003FE8EA16948FFF76FFE012200216748CC
:102DD000FFF7FAFD8DA16548FFF766FE4FF400612D
:102DE0007148FDF74FFD18B9FDF75AFD79490860A4
:102DF000FDF756FD77490968401A41F2883188424B
:102E0000CBD9032069490870FDF74AFD7149086074
:102E100000206F49087081E06448007803287DD164
:102E20006B480078032817D00320694908704F4881
:102E3000FFF7BAFD002211464C48FFF7C5FD78A107
:102E40004A48FFF731FE012200214848FFF7BCFD48
:102E500065A14648FFF728FE4FF400615248FDF790
:102E600011FDD0B900203E490968486300224FF4A3
:102E700000714C48FDF70EFD00224FF48061494877
:102E8000FDF708FD012049490870FDF709FD51498A
:102E9000086000204E49087040E040F2E7303049B9
:102EA0000968486300224FF400713E48FDF7F2FCC8
:102EB000012291023B48FDF7EDFC04213948FDF762
:102EC000E1FC40B1FDF7ECFC42490968401A43F6C9
:102ED0009821884222D900202149096848630022AC
:102EE0004FF400712F48FDF7D5FC00224FF48061AC
:102EF0002C48FDF7CFFC012251032948FDF7CAFCFD
:102F00004C20FDF70DFB002028490870304908705F
:102F1000484908604849086000F04EFE474800787C
:102F200000281BD14FF400411F48FDF7ABFCA0B9AE
:102F3000002000F0E1FE0021084600F093FF01238D
:102F40000B4806C83EA001F024F80E21002000F036
:102F500089FF0123064806C87AE08DE0B6E000004C
:102F6000F40400203C050020A00400202C000020D8
:102F70000C0000204355412050484F4E47204D4FF4
:102F800000000000567569204C6F6E672044756123
:102F9000000000004B68756F6E204D6174000000EA
:102FA0000010014000080140000C014034000020E6
:102FB00043554120313A205455204D4F0000000028
:102FC0004E67756F69207261206E676F61690000DE
:102FD0003C0000203800002043554120313A204475
:102FE000414E47204D4F0000446F6E6720636F20B5
:102FF00064616E672071756179000000435541205E
:10300000313A204441204D4F0000000043686F20BA
:103010006E67756F692064692076616F000000003B
:1030200043554120313A2044414E4720444F4E47BA
:103030000000000054000020500000203D0000204F
:1030400043554120323A205455204D4F0000000096
:10305000FBA000F09EFFFE4800F00AFF0020FD49A3
:1030600008700120FC490870FDF71AFCFB49086054
:103070000020FB49087056E04FF40041F948FDF785
:1030800001FC20BBF348007800284CD10120F14915
:1030900008704620FDF744FA002000F02DFE0021C4
:1030A000084600F0DFFE0123EF4806C8EFA000F05D
:1030B00070FF0E21002000F0D5FE0123EA4806C86B
:1030C000EDA000F066FFE24800F0D2FE2BE0E14800
:1030D000007840B30020DF49087000F00DFE0021A9
:1030E000084600F0BFFE0123DF4806C8AFF27C109F
:1030F00000F04FFF0E21002000F0B4FE0123DA485B
:1031000006C8AFF2801000F044FF1A21002000F042
:10311000A9FE0123D44806C8AFF2881000F039FF99
:10312000CB4800F0A5FECC48007801284DD1CC4812
:103130000078012812D00120C9490870002000F051
:10314000DBFD0021084600F08DFE0123C64806C8BD
:10315000CDA000F01EFFBE4800F08AFE40F2E7302E
:10316000CD490968886301221021CC48FDF792FB04
:1031700000222021C948FDF78DFB4FF48051C7483C
:10318000FDF780FB40B1FDF78BFBB4490968401A9D
:1031900043F69821884217D90020BF4909688863FF
:1031A00000221021BD48FDF775FB00222021BB48FD
:1031B000FDF770FB0220A8490870FDF771FBA749D5
:1031C00008600020A649087097E1A348007802280B
:1031D00068D1A3480078022840D00220A049087096
:1031E000AF48007850B3AF4BAFA220216846FCF740
:1031F000EFFF002000F080FD0021084600F032FEC5
:103200000123994806C8AAA000F0C3FE0E210020A1
:1032100000F028FE0123944806C8684600F0B9FE75
:103220001C21002000F01EFE01238F4806C8A4A028
:1032300000F0AFFE864800F01BFE0FE0002000F01B
:103240005BFD0021084600F00DFE0123864806C8FC
:103250009FA000F09EFE7E4800F00AFE4FF4004161
:103260008E48FDF70FFB28B14FF400417D48FDF774
:1032700009FB18B9FDF714FB78490860FDF710FB4E
:1032800076490968401A41F2883188429CD9032066
:1032900071490870FDF704FB70490860002070490F
:1032A00008702AE16C48007803288DD16C480078BA
:1032B000032812D003206A490870002000F01CFD8A
:1032C0000021084600F0CEFD0123674806C884A00F
:1032D00000F05FFE5E4800F0CBFD4FF400416F4808
:1032E000FDF7D0FA28B14FF400415E48FDF7CAFA65
:1032F000C0B9002068490968886300221021674826
:10330000FDF7C8FA002220216448FDF7C3FA012026
:1033100051490870FDF7C4FA50490860002050492F
:103320000870EAE040F2E7305B49096888630022F0
:1033300010215A48FDF7AEFA012220215748FDF727
:10334000A9FA4FF400515548FDF79CFA40B1FDF73A
:10335000A7FA42490968401A43F698218842A0D941
:1033600000204D4909688863002210214B48FDF771
:1033700091FA002220214948FDF78CFA484800784C
:1033800078B300203449087035490870454B46A28F
:1033900020216846FCF71CFF002000F0ADFC002156
:1033A000084600F05FFD01232F4806C840A000F04A
:1033B000F0FD0E21002000F055FD01232A4806C82B
:1033C000684600F0E6FD1C21002000F04BFD0123C3
:1033D000254806C83AA000F0DCFD1D4800F048FD75
:1033E0008BE0FFE700201C4908701D490870202170
:1033F0002C48FCF786FF002000F07EFC00210846E8
:1034000000F030FD0123184806C8AFF2984000F0E4
:10341000C0FD0E21002000F025FD0123124806C842
:10342000AFF2A04000F0B5FD1A21002000F01AFD17
:1034300001230D4806C8AFF2A44000F0AAFD59E0F0
:103440004E67756F69205261204E676F6169000099
:10345000A0040020460000203D0000204000002085
:1034600044000020000801400C0000204E68616EFE
:10347000204469656E0000004B68756F6E204D61D9
:10348000742E2E2E0000000043554120323A204475
:10349000414E47204D4F00003C050020000C0140EC
:1034A00045000020CC05002042533A20257300003F
:1034B00044414E47205048415520544855415400FE
:1034C0004D616E2068696E68204B484F41000000D6
:1034D00043554120323A204441204D4F0000000026
:1034E00043554120323A2044414E4720444F4E47F5
:1034F00000000000FE4800F0BBFC00BF0020079069
:10350000FC48006800680790FA4800684068079027
:1035100000BF00BF05230122F749F648FEF736FB3E
:10352000002834D1F44800784F2831D10020F349E5
:103530000860F3490860F348FFF736FA00221146A5
:10354000F048FFF741FAF0A1EE48FFF7ADFA01228B
:103550000021EC48FFF738FAEEA1EA48FFF7A4FA99
:103560004FF44870FCF7EAFF00224FF40051ED4899
:10357000FDF790F95520FCF7D3FF0020EA490870C9
:103580000120EA490870FDF78BF9E94908604FE12D
:10359000D9480078472861D10020E64908704021C9
:1035A000E548FCF78CFEFDF77BF905461AE032236F
:1035B000012207A9CF48FEF7E9FA90B99DF81C004F
:1035C0000A2803D0DB4800781E2800DB10E09DF8B5
:1035D0001C10D84802780078401CD64B1870D6488A
:1035E000815400BFFDF75CF9401BB0F5FA7FDED3D4
:1035F00000BF0020D049CF4A127888541F22CF48FC
:10360000FCF7A6FE0120CE490870002000F074FBF4
:103610000021084600F026FC0123CA4806C8CAA0BB
:1036200000F0B7FC1021002000F01CFC0123C5486D
:1036300006C8C9A000F0ADFCAD4800F019FC4FF47D
:103640004870FCF77BFF0120C7490870FDF728F997
:10365000C64908600020C6490870E9E0A64800781D
:10366000482827D1C0480078002890D100F044FBBA
:103670000021084600F0F6FB0123B24806C8BDA0B1
:1036800000F087FC0E21002000F0ECFB0123AD4888
:1036900006C8BCA000F07DFC954800F0E9FB0120C5
:1036A000B1490870FDF7FCF8B04908600020B04946
:1036B0000870BDE09048007843285CD10020A04904
:1036C000087020219D48FCF71CFE0020B0490870BE
:1036D00000F012FB0021084600F0C4FB01239948CA
:1036E00006C8ACA000F055FC1021002000F0BAFB89
:1036F0000123944806C8ACA000F04BFC7C4800F0C5
:10370000B7FB4FF4FA60FCF719FF002000F0F4FA61
:103710000021084600F0A6FB01238A4806C8AFF244
:10372000AC7000F036FC0E21002000F09BFB012362
:10373000844806C8AFF2B47000F02BFC1A210020B8
:1037400000F090FB01237F4806C8AFF2B87000F08C
:1037500020FC674800F08CFB83480078022867D182
:10376000032081490870FDF79BF88049086000201C
:103770007F4908705CE0604800784E2851D10020F5
:103780008349087000F0B8FA0021084600F06AFB8F
:1037900001236C4806C888A000F0FBFB0E21002026
:1037A00000F060FB0123674806C887A000F0F1FB2A
:1037B0001C21002000F056FB0123624806C884A0AB
:1037C00000F0E7FB4A4800F053FB4FF4FA60FCF7C7
:1037D000B5FE002000F090FA0021084600F042FB00
:1037E0000123584806C8AFF6740000F0D2FB0E2142
:1037F000002000F037FB0123524806C8AFF67C00DA
:1038000000F0C7FB1A21002000F02CFB01234D48DB
:1038100006C8AFF6800000F0BCFB354800F028FB7E
:1038200006E035480078502802D14120FCF778FEA8
:103830003248006801280FD1FDF732F8694909685C
:10384000401A42F21071884206D900202C490860C3
:103850002A49086000F0B0F96348FEF78BFC044683
:10386000002C2DD0FDF71CF85E4908602348006845
:1038700038BB302C24DB392C22DC01201F490860A6
:1038800000201F4908601F48FFF78EF800221146EC
:103890001C48FFF799F855A11A48FFF705F9184891
:1038A00001680068401C164A1060544844540122C4
:1038B00000211448FFF788F82A211248FFF7ECF896
:1038C0004AE10E4800680128FAD1232C0FD10020CC
:1038D0004A490B4A1268885449494848FCF764FD34
:1038E00020B900200549086005498BE0BBE0F7E0FE
:1038F000A004002084050020470000205400002080
:10390000500000202C0000204C454E4820545520EB
:10391000574542003E3E204D6F2043756120312EB9
:103920002E2E0000001001403C000020340000203A
:10393000380000205E00002001060020CC05002099
:10394000450000200C000020584143204D494E48BE
:10395000204F4B210000000042617420446175201B
:103960004361204D6F0000003D000020400000201A
:10397000440000204E68616E205669656E205661D5
:103980006F0000004D6F204375612E2E2E00000049
:10399000460000204341204D4F20484F414E2054C7
:1039A00048414E480000000050686F6E6720446137
:1039B0002054726F6E670000584143204D494E48B5
:1039C00020544841540000004241492100000000B9
:1039D000567569204C6F6E6720546875204C61697C
:1039E0000000000058000020600000204E68617058
:1039F000206D6174206B6861753A0000EC05002051
:103A0000490000200860564908805648FEF7CCFF60
:103A1000002211465348FEF7D7FF53A15148FFF744
:103A200043F8012200214F48FEF7CEFFAFF21C11F0
:103A30004C48FFF739F84FF44870FCF77FFD00223F
:103A40004FF400514C48FCF725FF5520FCF768FD6A
:103A500000204A490870012049490870FCF720FFFE
:103A60004849086038E03E480088401C3C490880CE
:103A70003C48FEF799FF44A13A48FFF715F84FF488
:103A80007A70FCF75BFD36480088032817DB354861
:103A9000FEF78AFF40A13348FFF706F8012208210C
:103AA0004148FCF7F7FE40F6B830FCF747FD00222E
:103AB00008213D48FCF7EEFE0020294908802948EE
:103AC000FEF772FF002211462648FEF77DFFAFF297
:103AD000E4012448FEF7E8FF0020344908603BE099
:103AE0002A2C1ED131480068002835DD2F48006897
:103AF000401E2E49086000202D492C4A1268885427
:103B000001222A4801681748FEF75EFF29A11548DF
:103B1000FEF7CAFF0122254801681248FEF754FF4C
:103B20001AE0302C18DB392C16DC204800681428E9
:103B300012DA1E4801680068401C1C4A10601C48CC
:103B4000445410460068411E01220648FEF73CFF1F
:103B50002A210448FEF7A0FF00BFFFF794B8000039
:103B60005C0000202C0000204D6174206B686175A2
:103B70002044554E47210000001001403C00002029
:103B80003400002038000020536169206D617420EA
:103B90006B6861752100000054616D206B686F6176
:103BA0002033732100000000000801405000002075
:103BB000EC0500202000000010B51448FEF7F4FECC
:103BC000002211461148FEF7FFFE11A10F48FEF733
:103BD0006BFF012200210D48FEF7F6FE11A10B48F4
:103BE000FEF762FF022200210848FEF7EDFE11A158
:103BF0000648FEF759FF032200210448FEF7E4FEC1
:103C000011A10248FEF750FF10BD00002C0000205B
:103C10003D3D3D204355412056414F203D3D3D3DDA
:103C2000000000004E686170206D6174206B686157
:103C3000753A000042616D2023206465207861633D
:103C4000206E68616E00000042616D202A2064656C
:103C500020786F6100000000F0B503461446802B09
:103C600001DA402900DBF0BD2148007920B10CB910
:103C7000012000E000200446012C1CD1CD1701EBEF
:103C80005575ED1003EBC5151A4E755D0A46CE1736
:103C900001EB5676F610A1EBC6070126BE40354370
:103CA000EEB20846CD1701EB5575ED1003EBC515C7
:103CB000104F7E551AE0CD1701EB5575ED1003EB53
:103CC000C5150C4E755D0A46CE1701EB5676F610FB
:103CD000A1EBC6070126BE40B5430846CE1701EB4F
:103CE0005676F61003EBC616024FBD5500BFBAE775
:103CF00024000020A00000200146002006E009B9B1
:103D0000002200E0FF22034B1A54401CB0F5806FE4
:103D1000F5D37047A000002070B505466420FCF77D
:103D20000DFC0024AE21284600F022F90444202195
:103D3000284600F01DF904441021284600F018F927
:103D40000444B021284600F013F90444C821284651
:103D500000F00EF904440021284600F009F904445B
:103D60001021284600F004F904444021284600F0C0
:103D7000FFF804448121284600F0FAF80444FF21AA
:103D8000284600F0F5F80444A121284600F0F0F898
:103D90000444A621284600F0EBF80444A821284654
:103DA00000F0E6F804443F21284600F0E1F804441E
:103DB000A421284600F0DCF80444D321284600F072
:103DC000D7F804440021284600F0D2F80444D52155
:103DD000284600F0CDF80444F021284600F0C8F849
:103DE0000444D921284600F0C3F80444222128467F
:103DF00000F0BEF80444DA21284600F0B9F8044483
:103E00001221284600F0B4F80444DB21284600F0D3
:103E1000AFF804442021284600F0AAF804448D217C
:103E2000284600F0A5F804441421284600F0A0F824
:103E30000444AF21284600F09BF804440CB1012053
:103E400070BD0020FFF758FF284600F011F8002051
:103E5000034908804880012048710020F0E70000F5
:103E600024000020014A1080518070472400002067
:103E70003EB5054600241DE004F1B000C1B228465D
:103E800000F076F80021284600F072F8102128464C
:103E900000F06EF864218022084802FB0400012330
:103EA000CDE901210090402278212846FCF79EFEB2
:103EB000601CC4B2082CDFDB3EBD0000A000002067
:103EC0002DE9FF4107461E46284800889DF804104A
:103ED0000844802806DA254840889DF805100844E3
:103EE000402803DB002004B0BDE8F081002430E06E
:103EF000A7F120009DF8051000FB0140029931F860
:103F00001080002520E008FA05F000F4004058B1C8
:103F1000164A92782244D1B2144A12782A44D0B276
:103F20003246FFF799FE0EE00EB9012300E00023B0
:103F30001A460E4B9B782344D9B20C4B1B782B446A
:103F4000D8B2FFF789FE6D1C9DF80400A842DAD8AC
:103F5000641C9DF80500A042CAD8044800889DF85A
:103F600004100844014908803846BCE724000020BA
:103F700013B584B004460A20012105AA0B46CDE9F9
:103F800000210290002278212046FCF72FFE06B087
:103F900010BD3FB504461D460CE020782B46DDE9F8
:103FA0000112FFF78DFF2178884202D0207804B0FB
:103FB00030BD641C20780028EFD12078F7E700009E
:103FC00000000000000000000000000000000000F1
:103FD0000000001000100010001000100010000081
:103FE0000010000000000028002800280000000049
:103FF0000000000000000000000000240024007CFD
:1040000000240048007C0048004800000000003800
:1040100000540050003800140054005400380010C0
:104020000000002000540058003000280054001404
:1040300000080000000000100028002800100034D4
:10404000004800480034000000000010001000107C
:104050000000000000000000000000000000000858
:104060000010002000200020002000200020001070
:1040700000080020001000080008000800080008E0
:104080000008001000200010003800100028000078
:104090000000000000000000000000000000001010
:1040A0000010007C00100010000000000000000064
:1040B00000000000000000000000000000100010E0
:1040C00000100000000000000000000000380000A8
:1040D00000000000000000000000000000000000E0
:1040E00000000000001000000000000800080010A0
:1040F0000010001000100020002000000000003818
:1041000000440044005400440044004400380000CF
:1041100000000010003000500010001000100010CF
:1041200000100000000000380044004400040008B3
:1041300000100020007C0000000000380044000453
:1041400000180004000400440038000000000008CB
:104150000018002800280048007C00080008000023
:104160000000007C0040004000780004000400448F
:10417000003800000000003800440040007800448F
:1041800000440044003800000000007C00040008E7
:104190000010001000200020002000000000003867
:1041A000004400440038004400440044003800004B
:1041B00000000038004400440044003C0004004477
:1041C00000380000000000000000001000000000A7
:1041D00000000000001000000000000000000000CF
:1041E000001000000000000000100010001000008F
:1041F0000000000C003000400030000C0000000007
:104200000000000000000000007C0000007C0000B6
:104210000000000000000000000000600018000422
:104220000018006000000000000000380044000496
:10423000000800100010000000100000000000380E
:104240000044004C0054005C004000400038000076
:10425000000000100028002800280028007C0044EE
:10426000004400000000007800440044007800444E
:104270000044004400780000000000380044004082
:104280000040004000400044003800000000007082
:10429000004800440044004400440048007000000E
:1042A0000000007C00400040007C004000400040D6
:1042B000007C00000000007C0040004000780040CE
:1042C0000040004000400000000000380044004072
:1042D0000040005C0044004400380000000000443E
:1042E00000440044007C00440044004400440000BA
:1042F0000000003800100010001000100010001026
:104300000038000000000004000400040004000461
:104310000004004400380000000000440048005041
:1043200000600050004800480044000000000040C9
:10433000004000400040004000400040007C000081
:1043400000000044006C006C005400440044004431
:104350000044000000000044006400640054005465
:10436000004C004C004400000000003800440044B1
:10437000004400440044004400380000000000787D
:104380000044004400440078004000400040000029
:10439000000000380044004400440044004400543D
:1043A0000038000400000078004400440044007815
:1043B000004800480044000000000038004400406D
:1043C0000030000800040044003800000000007CB9
:1043D000001000100010001000100010001000006D
:1043E00000000044004400440044004400440044F1
:1043F0000038000000000044004400440028002869
:104400000028001000100000000000440044005488
:1044100000540054006C00280028000000000044F4
:104420000028002800100010002800280044000088
:104430000000004400440028002800100010001074
:10444000001000000000007C0004000800100010B4
:1044500000200040007C0000000000180010001048
:1044600000100010001000100010001000180020B4
:1044700000200010001000100010000800080000CC
:10448000000000300010001000100010001000109C
:104490000010001000300010002800280044000028
:1044A000000000000000000000000000000000000C
:1044B00000000000000000000000000000FE0020DE
:1044C00000100000000000000000000000000000DC
:1044D00000000000000000380044003C0044004C94
:1044E0000034000000000040004000580064004418
:1044F0000044006400580000000000000000003884
:104500000044004000400044003800000000000467
:1045100000040034004C00440044004C003400000F
:1045200000000000000000380044007C004000440F
:10453000003800000000000C0010007C001000108B
:104540000010001000100000000000000000003407
:10455000004C00440044004C00340004007800404B
:10456000004000580064004400440044004400003F
:10457000000000100000007000100010001000107B
:10458000001000000000001000000070001000107B
:10459000001000100010001000E000400040004833
:1045A000005000600050004800440000000000700F
:1045B000001000100010001000100010001000008B
:1045C0000000000000000078005400540054005423
:1045D0000054000000000000000000580064004487
:1045E00000440044004400000000000000000038C7
:1045F0000044004400440044003800000000000073
:10460000000000580064004400440064005800406A
:104610000040000000000034004C00440044004C06
:104620000034000400040000000000580064004052
:104630000040004000400000000000000000003882
:104640000044003000080044003800000000002052
:10465000002000780020002000200020001800002A
:104660000000000000000044004400440044004CEE
:104670000034000000000000000000440044002856
:104680000028002800100000000000000000005476
:1046900000540054006C00280028000000000000B6
:1046A0000000004400280010001000280044000012
:1046B0000000000000000044004400280028001012
:1046C00000100010006000000000007C00080010D6
:1046D00000200040007C00000000001800100010C6
:1046E0000010002000200010001000100018001022
:1046F000001000100010001000100010001000103A
:104700000010003000100010001000080008001019
:104710000010001000300000000000000074004C89
:104720000000000000000000000000000000000089
:104730000000000000000000000000000000000079
:104740000000000000000000000000000000000069
:10475000000C000C000C000C000C000C000C000CF9
:10476000000C000C000C0000000C000C000000000D
:1047700000000000001B001B001B001B001B0000B2
:104780000000000000000000000000000000000029
:1047900000000000000000008019801980198019B5
:1047A000C07FC07F80190033C07FC07F00330033DB
:1047B000003300330000000000000000001E003F36
:1047C000807580650074003C001E000780058065D0
:1047D00080658075003F001E00040004000000009A
:1047E000007000D840D8C0D880D900730006000CF3
:1047F000801BC036C066C046C006800300000000B3
:1048000000000000001E003F003300330033001E94
:10481000000CC03CC066806380618063C03E801C29
:104820000000000000000000000C000C000C000C58
:10483000000C00000000000000000000000000006C
:1048400000000000000000000000800000010003E4
:10485000000600060004000C000C000C000C000C0C
:10486000000C000400060006000300018000002088
:1048700000100018000C000C0004000600060006E2
:104880000006000600060004000C000C00180010D2
:1048900000200000000C002D003F001E003300002F
:1048A0000000000000000000000000000000000008
:1048B000000000000000000000000000000C000CE0
:1048C000000C000CC0FFC0FF000C000C000C000C22
:1048D00000000000000000000000000000000000D8
:1048E00000000000000000000000000000000000C8
:1048F00000000000000C000C000400040008000090
:1049000000000000000000000000000000000000A7
:10491000001E001E0000000000000000000000005B
:104920000000000000000000000000000000000087
:10493000000000000000000000000000000C000C5F
:104940000000000000000000000300030003000658
:10495000000600060006000C000C000C000C0018FD
:10496000001800180000000000000000001E003FBA
:104970000033806180618061806D806D80618061C5
:1049800080610033003F001E0000000000000000B6
:104990000006000E001E0036002600060006000677
:1049A00000060006000600060006000600000000E3
:1049B00000000000001E003F807380618061800164
:1049C00000030006000C001800300060807F807F2C
:1049D0000000000000000000001C003E00630063B7
:1049E0000003000E000E00038001800180618073CF
:1049F000003F001E00000000000000000006000E46
:104A0000000E001E001E0016003600360066807F75
:104A1000807F000600060006000000000000000085
:104A2000007F007F006000600060006E007F806398
:104A30008001800180618073003F001E0000000043
:104A400000000000001E003F803380610060006EA7
:104A5000007F80738061806180618033003F001E31
:104A60000000000000000000807F807F80010003C4
:104A7000000300060006000C000C000C00080018E3
:104A8000001800180000000000000000001E003F99
:104A90008063806180610021001E003F8061806131
:104AA00080618061003F001E0000000000000000E7
:104AB000001E003F00738061806180618073803FD1
:104AC000801D800180610073003F001E0000000017
:104AD000000000000000000000000000000C000CBE
:104AE000000000000000000000000000000C000CAE
:104AF00000000000000000000000000000000000B6
:104B00000000000C000C000000000000000000008D
:104B1000000C000C0004000400080000000000006D
:104B2000000080008003000E003800600038000E96
:104B30008003800000000000000000000000000072
:104B40000000000000000000807F807F0000000067
:104B5000807F807F00000000000000000000000057
:104B60000000000000000000000000400070001C79
:104B7000000780010007001C0070004000000000DA
:104B80000000000000000000001F803FC071C060F6
:104B9000C000C00180030007000E000C000C0000E4
:104BA000000C000C0000000000000000001E003F90
:104BB000803180718063806F806D806D806F8067D1
:104BC00000600032003E001C0000000000000000F9
:104BD000000E000E001B001B001B001B80318031EB
:104BE000803F803F8031C060C060C0600000000036
:104BF00000000000007C007E00630063006300632F
:104C0000007E007E0063806180618063007F007EA3
:104C10000000000000000000001E003F80318061A5
:104C200000600060006000600060006080618031B2
:104C3000003F001E0000000000000000007C007F1C
:104C400000638063806180618061806180618061D8
:104C500000630063007E007C000000000000000094
:104C6000807F807F0060006000600060007F007FC8
:104C70000060006000600060807F807F00000000B6
:104C800000000000807F807F0060006000600060A6
:104C9000007F007F006000600060006000600060D6
:104CA0000000000000000000001E003F8031806115
:104CB000006000600060806380638061806180319B
:104CC000803F001E00000000000000008061806145
:104CD0008061806180618061807F807F8061806190
:104CE0008061806180618061000000000000000040
:104CF000003F003F000C000C000C000C000C000CEE
:104D0000000C000C000C000C003F003F00000000F5
:104D1000000000008001800180018001800180018D
:104D2000800180018001806180618073003F001EEE
:104D30000000000000000000C060806100630066A9
:104D40000066006C0078007C00660066006380618D
:104D50008061C06000000000000000000060006092
:104D60000060006000600060006000600060006043
:104D700000600060807F807F000000000000000075
:104D8000C071C071C07BC07AC06AC06AC06EC064A6
:104D9000C060C060C060C060C060C0600000000053
:104DA0000000000080718071807980798079806D49
:104DB000806D806D806580678067806780638063B9
:104DC0000000000000000000001E003F0033806172
:104DD0008061806180618061806180618061003379
:104DE000003F001E0000000000000000007E007F69
:104DF00080638061806180618063007F007E0060ED
:104E00000060006000600060000000000000000022
:104E1000001E003F0033806180618061806180619D
:104E20008061806580670033803F401E0000000085
:104E300000000000007E007F8063806180618063ED
:104E4000007F007E00660063006380618061C06057
:104E50000000000000000000000E001F80318031C3
:104E600000300038001E00078003806180618031BF
:104E7000003F001E0000000000000000C0FFC0FF57
:104E8000000C000C000C000C000C000C000C000CC2
:104E9000000C000C000C000C0000000000000000E2
:104EA00080618061806180618061806180618061FA
:104EB0008061806180618073003F001E00000000FF
:104EC00000000000C060C060C0608031803180316F
:104ED000001B001B001B001B000E000E000E000438
:104EE0000000000000000000C0C0C0C0C0C0C0C0C2
:104EF000C0C0C0CC804C804C805E80528052807399
:104F0000806180610000000000000000C0C080607F
:104F100080610033003B001E000C000C001E001FCF
:104F2000003B80718061C0C00000000000000000F4
:104F3000C0C08061806100330033001E001E000C81
:104F4000000C000C000C000C000C000C0000000019
:104F500000000000803F803F800100030003000646
:104F6000000C000C0018001800300060807F807F6B
:104F7000000000000000000F000F000C000C000CEF
:104F8000000C000C000C000C000C000C000C000CC1
:104F9000000C000C000C000F000F0000001800189F
:104FA0000018000C000C000C000C000600060006A7
:104FB0000006000300030003000000000000001EC4
:104FC000001E000600060006000600060006000699
:104FD0000006000600060006000600060006001E89
:104FE000001E0000000C000C001E001200330033F5
:104FF00080618061000000000000000000000000EF
:1050000000000000000000000000000000000000A0
:105010000000000000000000000000000000000090
:10502000000000000000E0FF000000000038001851
:10503000000C000000000000000000000000000064
:105040000000000000000000000000000000000060
:105050000000000000000000001F803F8061800110
:10506000801F803F80618063807FC0380000000027
:10507000000000000060006000600060006E007FC3
:10508000807380618061806180618073007F006EC9
:105090000000000000000000000000000000000010
:1050A000001E003F8073806100600060806180733B
:1050B000003F001E00000000000000008001800191
:1050C00080018001801D803F8073806180618061EC
:1050D00080618073803F801D0000000000000000A0
:1050E0000000000000000000001E003F007380610F
:1050F000807F807F00608071003F001E0000000004
:1051000000000000C007C00F000C000C807F807FF3
:10511000000C000C000C000C000C000C000C000C2F
:105120000000000000000000000000000000801DE2
:10513000803F807380618061806180618073803F87
:10514000801D80018063007F003E000000600060E1
:1051500000600060006F807F80718061806180618D
:1051600080618061806180610000000000000000BB
:105170000006000600000000003E003E000600069B
:1051800000060006000600060006000600000000FB
:1051900000000006000600000000003E003E000681
:1051A00000060006000600060006000600060006CF
:1051B0000046007E003C000000600060006000606F
:1051C000806100630066006C007C00760063006311
:1051D0008061C0600000000000000000003E003E52
:1051E000000600060006000600060006000600068F
:1051F0000006000600060006000000000000000097
:10520000000000000000000080DDC0FFC0CEC0CC68
:10521000C0CCC0CCC0CCC0CCC0CCC0CC0000000046
:10522000000000000000000000000000006F807F10
:105230008071806180618061806180618061806156
:10524000000000000000000000000000000000005E
:10525000001E003F80738061806180618061807387
:10526000003F001E000000000000000000000000E1
:105270000000006E007F80738061806180618061CA
:105280008073007F006E00600060006000600000BE
:10529000000000000000801D803F807380618061FD
:1052A000806180618073803F801D8001800180016A
:1052B0008001000000000000000000000067803F47
:1052C0000039003000300030003000300030003055
:1052D00000000000000000000000000000000000CE
:1052E000001E803F80610060007F803F8001806100
:1052F000007F001E00000000000000000000000809
:1053000000180018007F007F00180018001800180F
:1053100000180018801F800F00000000000000002F
:1053200000000000000000008061806180618061F9
:105330008061806180618063807F803D000000002B
:10534000000000000000000000000000C06080318C
:1053500080318031001B001B001B000E000E000678
:10536000000000000000000000000000000000003D
:1053700080DD80DD80DD0055005500550077007729
:1053800000220022000000000000000000000000D9
:1053900000000000806100330033001E000C000C90
:1053A000001E003300338061000000000000000098
:1053B0000000000000008061806180310033003314
:1053C000001B001B001B000E000E000E001C007CCA
:1053D000007000000000000000000000C07FC07FDF
:1053E000800100030006000C00180030C07FC07F61
:1053F0000000000000008003800700060006000691
:1054000000060006000E001C001C000E0006000630
:10541000000600060006800780030006000600065E
:10542000000600060006000600060006000600064C
:10543000000600060006000600060006000600380A
:10544000003C000C000C000C000C000C000E0007CF
:105450000007000E000C000C000C000C000C003CBF
:105460000038000000000000000000000000000004
:105470008038807F0047000000000000000000002E
:10548000000000000000000000000000000000001C
:10549000000000000000000000000000000000000C
:1054A00000000000000000000000000000000000FC
:1054B00000000000000000000000E003E003E00343
:1054C000E003E003E003E003E003C003C003C00126
:1054D000C001C001C001C001000000000000E003E5
:1054E000E003E003000000000000000000003C1E9C
:1054F0003C1E3C1E3C1E3C1E3C1E3C1E0000000090
:10550000000000000000000000000000000000009B
:10551000000000000000000000000000000000008B
:105520000000CE01CE03DE039E039C039C07FF3FD9
:10553000FF7F3807380F780F780F780EFFFFFFFFD7
:10554000F01EF01CE01CE03CE03DE03900000000F3
:10555000000000000000FC03FE0FEE1FE01EE01E36
:10556000E01EE01EE01FE00FE007F003FC01FE017B
:10557000FE01FE01FE01FE01FE01FE3DFC3FF00FBB
:10558000E001E001000000000000033E07F78FE7A4
:105590008EE79EE3BCE3B8E7F8E7F0F7E03FC00131
:1055A000FF03FF07F307F30FF31EF33CF338F37821
:1055B0007FF03FE000000000000000000000E00776
:1055C000F80F780F781F781F781F780FF00FE00F13
:1055D000801FC37FC3FBE7F3F7F1F7F0FFF07FF025
:1055E0003EF87F7CFF3FEF1F00000000000000003E
:1055F0000000E003E003E003E003E003C003C001B8
:10560000000000000000000000000000000000009A
:10561000000000000000000000000000000000008A
:105620000000000000003F007C00F001E001C0032A
:10563000C00780078007800F000F000F000F000FCA
:10564000000F000F800F80078007C007C003E00134
:10565000F0017C003F000F000000007E001FC0072B
:10566000C003E001F001F000F000F80078007800DD
:105670007800780078007800F800F000F000F00181
:10568000E001C003C007001F007E00780000E003B7
:10569000C003C001CE39FF3F7F3F20037003F807EE
:1056A000780F3C1F380600000000000000000000DA
:1056B00000000000000000000000000000000000EA
:1056C0000000000000000000000000000000C00119
:1056D000C001C001C001C001C001C001FFFFFFFF48
:1056E000C001C001C001C001C001C0010000000034
:1056F00000000000000000000000000000000000AA
:105700000000000000000000000000000000000099
:105710000000000000000000E003E003E003E003FD
:10572000E001E001E001C001800300000000000092
:105730000000000000000000000000000000000069
:10574000FE3FFE3F000000000000000000000000DF
:105750000000000000000000000000000000000049
:105760000000000000000000000000000000000039
:105770000000000000000000000000000000000029
:10578000E003E003E003E00300000000000000008D
:1057900000000F000F001E001E003C003C007800BF
:1057A0007800F000F000E001E001C003C0038007D2
:1057B0008007000F000F001E001E003C003C007818
:1057C000007800F00000F007F80F7C1F3E3E1E3C02
:1057D0001F7C1F7C0F780F780F780F780F780F7869
:1057E0000F781F7C1F7C1E3C3E3E7C1FF80FF0078D
:1057F00000000000000000000000F000F007F03F93
:10580000F03FF001F001F001F001F001F001F001D2
:10581000F001F001F001F001F001F001F001F00100
:10582000FF3FFF3F00000000000000000000E00F0D
:10583000F83F7C3C3C003E003E003E003C003C000B
:105840007C00F800F001E003C0078007000F001E95
:10585000003E003CFE3FFE3F000000000000000054
:105860000000F00FF81F7C1C3E003E003E003C0094
:105870003C00F800F00FF80F7C003E001E001E00F8
:105880001E001E003E007C1CF81FE01F00000000F0
:105890000000000000007800F800F800F801F803AC
:1058A000F807F807780F781E781E783C78787878B3
:1058B000FFFFFFFF7800780078007800780078001C
:1058C00000000000000000000000FC1FFC1FFC1F87
:1058D000001E001E001E001E001EE01FF81FFC0020
:1058E0007C003E003E001E003E003E003C007C1C52
:1058F000F81FE01F00000000000000000000FC0195
:10590000FE078E0F001F001E003E003C003CF83DCD
:10591000FC3F3E7F1F7E0F3C0F3C0F3C0F3C0F3E79
:105920001F1E3E1FFC0FF0030000000000000000DF
:105930000000FF3FFF3FFF3F0F001E001E003C0026
:1059400038007800F000F000E001E001C003C0037F
:105950008007800F800F000F001F001F0000000055
:10596000000000000000F807FC0F3E1F1E1E1E3E38
:105970001E3E1E1E3C1FF80FF007F80FFC1E3E3E99
:105980001F3C1F7C0F7C0F7C1F3C3E3FFC1FF00721
:1059900000000000000000000000F007F80F7C1E6F
:1059A0003E3C1E3C1F7C1F7C1F7C1F7C1F3C3F3EDF
:1059B000FF1FEF071F001E001E003E003C00F838CE
:1059C000F03FE01F000000000000000000000000A9
:1059D00000000000000000000000E003E003E0031E
:1059E000E0030000000000000000000000000000D4
:1059F000E003E003E003E00300000000000000001B
:105A00000000000000000000000000000000E003B3
:105A1000E003E003E00300000000000000000000DD
:105A200000000000E003E003E003E003E001E00128
:105A3000E001C0038003000000000000000000003F
:105A4000000003000F003F00FC00F003C00F003F08
:105A500000FE003FC00FF003FC003F000F000300FA
:105A60000000000000000000000000000000000036
:105A70000000000000000000000000000000FFFF28
:105A8000FFFF000000000000FFFFFFFF000000001C
:105A90000000000000000000000000000000000006
:105AA0000000000000000000000000E000F8007EA0
:105AB000801FE007F8017E001F007E00F801E0076C
:105AC000801F007E00F800E00000000000000000E1
:105AD0000000F01FFC3F3E381F381F381E001E001C
