:020000040800F2
:10000000D007002089010008911F00082919000865
:100010008D1F000813030008492400080000000099
:10002000000000000000000000000000C11F0008E8
:100030001703000800000000951F0008C31F0008F8
:10004000A3010008A3010008A3010008A301000800
:10005000A3010008A3010008A3010008A3010008F0
:10006000A3010008A3010008A3010008A3010008E0
:10007000A3010008A3010008A3010008A3010008D0
:10008000A3010008A3010008A3010008A3010008C0
:10009000A3010008A3010008A3010008A3010008B0
:1000A000A3010008A3010008A3010008A3010008A0
:1000B000A3010008A3010008A3010008A301000890
:1000C000A3010008A3010008A3010008A301000880
:1000D000A3010008A3010008A3010008A301000870
:1000E000A3010008A3010008A301000800F002F822
:1000F00000F03AF80AA090E8000C82448344AAF188
:100100000107DA4501D100F02FF8AFF2090EBAE885
:100110000F0013F0010F18BFFB1A43F0010318473B
:10012000E42D0000042E0000103A24BF78C878C1E6
:10013000FAD8520724BF30C830C144BF04680C60ED
:10014000704700000023002400250026103A28BF35
:1001500078C1FBD8520728BF30C148BF0B60704739
:100160001FB51FBD10B510BD00F099F81146FFF77F
:10017000F7FF02F05BFA00F0B7F803B4FFF7F2FF05
:1001800003BC00F0BFF80000094880470948004759
:10019000FEE7FEE7FEE7FEE7FEE7FEE7FEE7FEE737
:1001A000FEE7FEE704480549054A064B7047000094
:1001B00031200008ED000008D0010020D007002009
:1001C000D0030020D00300204FF0000200B51346FA
:1001D00094469646203922BFA0E80C50A0E80C5067
:1001E000B1F12001BFF4F7AF090728BFA0E80C5018
:1001F00048BF0CC05DF804EB890028BF40F8042B11
:1002000008BF704748BF20F8022B11F0804F18BF7D
:1002100000F8012B704700004FF0013C50F8042B10
:1002200051F8043B9A4221D1A2EB0C03934313EA09
:10023000CC1317D150F8042B51F8043B9A4215D136
:10024000A2EB0C03934313EACC130BD150F8042B0D
:1002500051F8043B9A4209D1A2EB0C03934313EAF1
:10026000CC13DBD04FF00000704700BFD01A01BAAA
:10027000B1FA81F101F0180122FA01F0CB40C1F18D
:100280002001DBB2C0B2C01A2CFA01F3D11A91439B
:1002900011EAC311E6D17047704770477047754641
:1002A00000F02CF8AE4605006946534620F00700E2
:1002B000854618B020B5FFF775FFBDE820404FF028
:1002C00000064FF000074FF000084FF0000B21F040
:1002D0000701AC46ACE8C009ACE8C009ACE8C0090D
:1002E000ACE8C0098D46704710B50446AFF30080F6
:1002F0002046BDE81040FFF740BF000000487047AF
:100300006C01002001491820ABBEFEE72600020068
:10031000704700BFFEE7704701B5642301226946BC
:10032000014801F0A2FA08BD0C01002072B600BF1E
:10033000FEE7000070B5044600F0AEF9064625461B
:10034000681C10B104480078054400BF00F0A4F90F
:10035000801BA842FAD370BD680000202DE9F84741
:100360000346002294466EE14FF0010808FA02F4B9
:10037000D1F8008008EA0400A0427DD1DFF8DCA2B9
:10038000D1F80480A8EB0A09D0453AD014DCB8F1C2
:10039000030F50D009DCB8F1000F31D0B8F1010FD4
:1003A0001CD0B8F1020F49D120E0B8F1110F18D0DC
:1003B000B8F1120F42D11EE0B9F5881F25D006DC36
:1003C000B9F5803F20D0B9F5801F37D11AE0B9F5D3
:1003D000001F18D0B9F5041F30D117E0D1F80CC0B8
:1003E0002DE0D1F80C8008F1040C28E0D1F80C8045
:1003F00008F1080C23E0D1F80C8008F10C0C1EE089
:1004000000BF00BF00BF00BF00BF00BFD1F8088021
:10041000B8F1000F02D14FF0040C0BE0D1F80880C6
:10042000B8F1010F03D14FF0080C1C6102E04FF04E
:10043000080C5C6103E04FF0000C00E000BF00BF5F
:10044000FF2801D8984601E003F104084646FF283A
:1004500002D84FEA820803E0A2F108084FEA8808B0
:100460004746D6F800804FF00F0909FA07F928EA45
:1004700009080CFA07F900E088E048EA0908C6F81C
:100480000080D1F8048008F08058B8F1805F7DD1F9
:1004900000BFDFF8CC81D8F8188048F00108DFF8F9
:1004A000C091C9F81880C846D8F8188008F001082B
:1004B000CDF8008000BF00BF4FEAB9384FEA92097B
:1004C00058F829504FEA82784FEA18794FF00F0810
:1004D00008FA09F825EA0805DFF88881434502D1C2
:1004E0004FF0000816E0DFF88081434502D14FF05D
:1004F00001080FE0DFF87481434502D14FF0020894
:1005000008E0DFF86C81434502D14FF0030801E0B9
:100510004FF004084FEA82794FEA197908FA09F88E
:1005200048EA0505DFF84C814FEA920948F829505E
:10053000D1F8048008F48018B8F5801F0AD1DFF8DC
:100540003881D8F8008048EA0008DFF82C91C9F813
:10055000008009E0DFF82081D8F8008028EA000850
:10056000DFF81491C9F80080D1F8048008F400186D
:10057000B8F5001F10D1DFF8008108F10408D8F8A1
:10058000008048EA0008DFF8F09000E05AE009F146
:100590000409C9F800800DE0DFF8DC8008F10408E8
:1005A000D8F8008028EA0008DFF8CC9009F10409A7
:1005B000C9F80080D1F8048008F40038B8F5003F8D
:1005C0000ED1DFF8B480A8F10408D8F8008048EA1A
:1005D0000008DFF8A490A9F10409C9F800800DE033
:1005E000DFF89480A8F10408D8F8008028EA000811
:1005F000DFF88490A9F10409C9F80080D1F80480DB
:1006000008F48038B8F5803F0ED1DFF86C80A8F18F
:100610000808D8F8008048EA0008DFF85C90A9F1E3
:100620000809C9F800800DE0DFF84C80A8F108083F
:10063000D8F8008028EA0008DFF83C90A9F1080902
:10064000C9F80080521CD1F8008028FA02F8B8F1ED
:10065000000F7FF489AEBDE8F8870000000011109C
:100660000010024000080140000C01400010014051
:10067000001401400800014008040140024693684C
:100680000B400BB1012000E0002070470AB101616E
:1006900001E00B04036170470148006870470000E7
:1006A0006000002070B504460CB9012070BD94F8BC
:1006B0003D0028B9002084F83C00204600F092F963
:1006C000242084F83D002068006820F001002168A3
:1006D00008602068006840F40040216808602068D5
:1006E000006820F400402168086000F04FFB0546D8
:1006F0005C496068884206D85B48854201D2012087
:1007000007E0002005E05948854201D2012000E0C1
:100710000020012800D1C9E75548B5FBF0F6206854
:10072000406820F03F003043216848604D496068D0
:10073000884201D8701C07E04FF4967070434FF464
:100740007A71B0FBF1F0401C2168096A21F03F0189
:1007500008432168086243496068884214D8681ECB
:1007600061684900B0FBF1F0401CC0F30B000428A5
:1007700001D204203DE0681E61684900B0FBF1F041
:10078000401CC0F30B0034E0A06838B9681E6168F3
:1007900001EB4101B0FBF1F0401C0AE0681E61680A
:1007A00001EBC10202EB0111B0FBF1F0401C40F47F
:1007B0008040C0F30B0008B901201AE0A06848B9D6
:1007C000681E616801EB4101B0FBF1F0401CC0F311
:1007D0000B000CE0681E616801EBC10202EB011125
:1007E000B0FBF1F0401CC0F30B0040F4804040F43B
:1007F00000402168C9694CF6FF72914308432168A3
:10080000C861D4E9070108432168096821F0C001E3
:10081000084321680860D4E9031008432168896807
:1008200048F2FF329143084321688860D4E905010A
:1008300008432168C96821F0FF0108432168C860A6
:100840002068006840F001002168086000202064F2
:10085000202084F83D000020206384F83E0000BF83
:1008600024E70000A086010080841E0000093D00EE
:1008700040420F002DE9F8430446894616461F46BC
:10088000DDF82080FFF708FF054694F83D0020289A
:100890007ED11923012251492046009501F0F9F833
:1008A00010B10220BDE8F88300BF94F83C00012895
:1008B00001D10220F6E7012084F83C0000BF206847
:1008C000006800F0010028B92068006840F00100CD
:1008D000216808602068006820F4006021680860D2
:1008E000212084F83D00102084F83E000020206480
:1008F00066626785608D20853948E0622B464246F6
:100900004946204601F032F808B10120CAE700BF8D
:100910000020009020684069009020688069009065
:1009200000BF00BF44E02A464146204601F08DF951
:1009300050B1206C042805D12068006840F4007094
:10094000216808600120ADE7606A007821680861CD
:10095000606A401C6062608D401E6085208D401E74
:10096000208520684069C0F3800070B1208D60B19F
:10097000606A007821680861606A401C6062608D6E
:10098000401E6085208D401E20852A46414600E09D
:1009900022E0204601F04AF850B1206C042805D12D
:1009A0002068006840F4007021680860012079E741
:1009B000208D0028B7D12068006840F400702168BD
:1009C0000860202084F83D00002084F83E0000BF2D
:1009D00084F83C0000BF65E7022063E702001000D6
:1009E0000000FFFF10B586B004460020029003907F
:1009F000049005901A49206888422FD100BF1948F9
:100A0000806940F00800174988610846806900F055
:100A10000800019000BF00BF4FF440700290122008
:100A200003900320059002A90F48FFF797FC00BF31
:100A30000E49486840F0E06040F00200486000BFA6
:100A400000BF0848C06940F400100649C861084664
:100A5000C06900F40010019000BF00BF06B010BDD7
:100A60000054004000100240000C01400000014012
:100A70000348006803490978084401490860704741
:100A8000600000206800002010B50848006840F0B1
:100A9000100006490860032000F098F80F2000F0CD
:100AA00007F800F02BF8002010BD000000200240E5
:100AB00070B504460E4800784FF47A71B1FBF0F03F
:100AC0000C490968B1FBF0F5284600F0E9FB08B1D4
:100AD000012070BD102C07D200222146501E00F0CC
:100AE00037F80548046001E00120F2E70020F0E754
:100AF000680000206C0000206400002008B500BFE2
:100B00001148806940F001000F49886108468069FA
:100B100000F00100009000BF00BF00BF0846C069A0
:100B200040F08050C8610846C06900F080500090D5
:100B300000BF00BF00BF0549486820F0E06040F0FA
:100B40000070486000BF08BD001002400000014076
:100B50002DE9F05F80460D461646002701F076FC31
:100B6000074639462A46334601F00700C0F1070A16
:100B7000BAF1040F02D94FF0040A01E0C0F1070AEC
:100B8000D14600F1040ABAF1070F02D24FF0000A71
:100B900001E0A0F1030AD4464FF0010A0AFA09FA6B
:100BA000AAF1010A0AEA020A0AFA0CFA4FF0010B4A
:100BB0000BFA0CFBABF1010B0BEA030B4AEA0B043B
:100BC0002146404601F04AFCBDE8F09F00BF00F01E
:100BD0000702064B19684FF6FF031940044B0B43FD
:100BE00043EA0221014B196000BF70470CED00E0A1
:100BF0000000FA0570B504460D460CB9012070BD21
:100C00005A48006800F00700A8420ED25748006812
:100C100020F007002843554908600846006800F0A6
:100C20000700A84201D00120E9E7207800F0020087
:100C300002281DD1207800F00400042805D14C487A
:100C4000406840F4E0604A494860207800F00800BD
:100C5000082805D14648406840F46050444948603F
:100C60004348406820F0F000A168084340494860CC
:100C7000207800F0010078B36068012806D13C4874
:100C8000006800F4003090B90120B8E760680228DD
:100C900006D13748006800F0007040B90120AEE787
:100CA0003348006800F0020008B90120A7E7304887
:100CB000406820F00300616808432D494860FFF751
:100CC000EBFC064609E0FFF7E7FC801B41F28831A8
:100CD000884202D9032092E707E02548406800F0E7
:100CE0000C006168B0EB810FEDD12048006800F086
:100CF0000700A8420ED91D48006820F007002843CD
:100D00001A4908600846006800F00700A84201D0B0
:100D1000012074E7207800F00400042807D114486B
:100D2000406820F4E060E168084311494860207899
:100D300000F00800082808D10D48406820F46050F1
:100D4000216940EAC1000A49486000F03FF80849BB
:100D50004968C1F30311074A515CC840064908605D
:100D600006480068FFF7A4FE002048E70020024084
:100D700000100240EA2E00086C00002064000020F1
:100D800001480068704700006C00002000B5FFF7C4
:100D9000F7FF04494968C1F30221034A515CC84086
:100DA00000BD000000100240FA2E000800B5FFF759
:100DB000E7FF04494968C1F3C221034A515CC840B6
:100DC00000BD000000100240FA2E000870B500219E
:100DD0000022002400230020134D696801F00C0557
:100DE000F5B1042D02D0082D19D101E00F4819E00A
:100DF0000F4DC1F38346AB5D01F4803555B10A4D0B
:100E00006D68C5F340450B4E725D084D5D43B5FB03
:100E1000F2F402E0084D03FB05F4204602E000BFB7
:100E2000024800BF00BF70BD0010024000127A00EF
:100E3000D82E0008E82E000800093D00F8B5044649
:100E40000CB90120F8BD207800F00100002878D00E
:100E5000F848406800F00C0004280CD0F5484068C1
:100E600000F00C00082811D1F248406800F48030EE
:100E7000B0F5803F0AD1EF48006800F40030002848
:100E80005FD0606800285CD10120DBE700BF6068AC
:100E9000B0F5803F06D1E748006840F48030E5496E
:100EA000086028E0606858B9E248006820F48030A3
:100EB000E04908600846006820F4802008601AE0D5
:100EC0006068B0F5A02F0BD1DA48006840F48020AC
:100ED000D84908600846006840F4803008600AE09D
:100EE000D448006820F48030D24908600846006881
:100EF00020F48020086000BF606888B1FFF7CCFB59
:100F0000054606E0FFF7C8FB401B642801D9032013
:100F100098E7C848006800F400300028F2D010E0DC
:100F2000FFF7BAFB054606E0FFF7B6FB401B642857
:100F300001D9032086E7BF48006800F4003000288C
:100F4000F2D1207800F00200022857D1B948406859
:100F500000F00C0050B1B748406800F00C000828C1
:100F600018D1B448406800F4803098B9B14800689E
:100F700000F0020020B12069012801D0012061E7C2
:100F8000AC48006820F0F800616940EAC100A94956
:100F9000086033E02069E8B10120A7490860FFF745
:100FA0007BFB054606E0FFF777FB401B022801D9D3
:100FB000032047E79F48006800F002000028F2D0B5
:100FC0009C48006820F0F800616940EAC100994936
:100FD000086013E0002098490860FFF75DFB0546B4
:100FE00006E0FFF759FB401B022801D9032029E73F
:100FF0009048006800F002000028F2D1207800F04C
:10100000080008282DD1A069B8B101208B490860DB
:10101000FFF742FB054606E0FFF73EFB401B0228B8
:1010200001D903200EE78348406A00F0020000283F
:10103000F2D0012000F0B0FF13E000207F490860EB
:10104000FFF72AFB054606E0FFF726FB401B0228B8
:1010500001D90320F6E67748406A00F00200002834
:10106000F2D1207800F00400042873D100277148E1
:10107000C06900F0805070B900BF6E48C06940F090
:1010800080506C49C8610846C06900F080500090EB
:1010900000BF00BF01276A48006800F48070B0B943
:1010A0006748006840F4807065490860FFF7F4FA0B
:1010B000054606E0FFF7F0FA401B642801D903203B
:1010C000C0E65F48006800F480700028F2D000BFDE
:1010D000E068012806D15748006A40F001005549F0
:1010E000086227E0E06858B95248006A20F0010021
:1010F000504908620846006A20F00400086219E0BE
:10110000E06805280BD14B48006A40F004004949CB
:1011100008620846006A40F0010008620AE045489B
:10112000006A20F00100434908620846006A20F086
:101130000400086200BFE068A0B1FFF7ADFA054601
:1011400009E0FFF7A9FA401B41F28831884202D931
:10115000032077E622E03748006A00F0020000280A
:10116000EFD012E0FFF798FA054608E0FFF794FA8F
:10117000401B41F28831884201D9032062E62D48A4
:10118000006A00F002000028F0D1012F05D12948A3
:10119000C06920F080502749C86100BFE069C8B32A
:1011A0002448406800F00C00082860D0E06902285C
:1011B00048D1002020490866FFF76EFA054606E090
:1011C000FFF76AFA401B022801D903203AE61948C2
:1011D000006800F000700028F2D1206AB0F5803F6E
:1011E00007D11448406820F40030A1680843114931
:1011F0004860D4E9080108430E49496821F4741194
:1012000008430C49486001200B490866FFF744FA7F
:10121000054607E03DE0FFF73FFA401B022801D9F1
:1012200003200FE60348006800F000700028F2D0A9
:101230002FE00000001002400000424280044242C1
:1012400000700040002014490866FFF725FA0546A3
:1012500006E0FFF721FA401B022801D90320F1E53F
:101260000E48006800F000700028F2D111E0E0693B
:10127000012800D1E6E50948466806F48031206A75
:10128000814204D106F47011606A814201D00120CC
:10129000D8E50020D6E500000000424200100240E0
:1012A00070B504462546681EB0F1807F01D3012049
:1012B0000FE0681E4FF0E02148610F214FF0FF3032
:1012C00001F0CCF800204FF0E02188610720086190
:1012D000002070BD10B50346002200BF93F83C000B
:1012E000012801D1022010BD012083F83C0000BF7D
:1012F00022F0FF00CC6840EA040222F440708C68BF
:1013000040EA040222F480604C6840EA040222F4BD
:1013100000600C6840EA040222F480500C6940EA44
:10132000040222F400504C6940EA040222F4804096
:10133000CC6940EA04021868426400BF002083F8C8
:101340003C0000BF00BFCEE730B502460B4600BFF1
:1013500092F83C00012801D1022030BD012082F822
:101360003C0000BF022082F83D001068446810680D
:10137000816824F070041868044310684460104DBC
:101380001068A8420BD01068B0F1804F07D00D4D07
:101390001068A84203D00C4D1068A84205D121F076
:1013A00080015868014310688160012082F83D0087
:1013B00000BF002082F83C0000BF00BFCDE7000066
:1013C000002C0140000400400008004010B586B029
:1013D0000446002002900390049005900E49206876
:1013E000884216D100BF0D48806940F004000B49C7
:1013F00088610846806900F00400019000BF00BFCA
:101400008815029002200390059002A90448FEF777
:10141000A5FF06B010BD0000002C014000100240E6
:10142000000801402DE9F04104460D46164600270C
:1014300000BF94F83C00012802D10220BDE8F081F1
:10144000012084F83C0000BF36B1042E1BD0082ECA
:1014500031D00C2E5ED145E02946206800F03EFEDA
:101460002068806940F008002168886120688069F0
:1014700020F0040021688861206880692969084398
:101480002168886148E02946206800F057FE2068FE
:10149000806940F40060216888612068806920F4D8
:1014A00080602168886120688069296940EA01209C
:1014B0002168886130E02946206800F073FE2068CA
:1014C000C06940F008002168C8612068C06920F048
:1014D00004002168C8612068C0692969084321683F
:1014E000C86119E02946206800F090FE2068C069B4
:1014F00040F400602168C8612068C06920F4806001
:101500002168C8612068C069296940EA0120216812
:10151000C86101E0012700BF00BF00BF002084F8C0
:101520003C0000BF384689E710B504460CB90120DD
:1015300010BD94F83D0028B9002084F83C002046F6
:1015400000F026F8022084F83D00211D206800F0FC
:1015500071FD012084F8460000BF84F83E0001219F
:101560003F200155402001554120015500BF00BFDB
:10157000012084F8420043200155442001554520B4
:10158000015500BF012084F83D000020D0E7000095
:1015900008B5094A016891420DD100BF0749896920
:1015A00041F40061054A91611146896901F40061C5
:1015B000009100BF00BF08BD002C01400010024098
:1015C00070B504460D4615B994F83E000BE0042DA5
:1015D00002D13F20005D06E0082D02D14020005DD1
:1015E00001E04120005D012801D0012070BD1DB93E
:1015F000022084F83E000EE0042D03D102213F209A
:10160000015508E0082D03D102214020015502E0D8
:1016100002214120015501222946206800F04CFD9D
:1016200019492068884201D1012000E0002028B13A
:101630002068406C40F400402168486412492068EA
:1016400088420BD02068B0F1804F07D00F49206846
:10165000884203D00E49206888420CD120688068F7
:1016600000F00706062E0CD02068006840F001004C
:101670002168086005E02068006840F001002168EA
:1016800008600020B2E70000002C01400004004088
:101690000008004010B504460CB9012010BDA06937
:1016A00000B100E000BF94F8410028B9002084F8A0
:1016B0004000204600F02AF8242084F841002068E9
:1016C000C06820F400502168C860204600F0F8FD92
:1016D0002068006920F49040216808612068406912
:1016E00020F02A00216848612068C06840F400505A
:1016F0002168C86000206064202084F8410084F8DC
:1017000042000020606300BFC8E7000010B586B04B
:101710000446002002900390049005901E49206822
:10172000884236D100BF1D48806940F480401B4983
:1017300088610846806900F48040019000BF00BFC6
:1017400000BF0846806940F008008861084680694B
:1017500000F00800019000BF00BF4020029002206E
:1017600003900320059002A90D48FEF7F7FD8020A5
:10177000029000200390049002A90948FEF7EEFDB4
:1017800000BF0849486840F0E06040F0040048604D
:1017900000BF06B010BD000000380140001002403C
:1017A000000C0140000001402DE9F84F04460E46B0
:1017B000174699464FF0000A94F84200202852D16B
:1017C00006B117B90120BDE8F88F0020606422201F
:1017D00084F8420000202063FEF75EFF8246A78562
:1017E000E785A068B0F5805F04D1206910B90025B5
:1017F000B04602E035464FF000082CE05346002288
:1018000020212046CDF8009000F0D8FD20B1202006
:1018100084F842000320D6E745B920684068C0F349
:101820000800A8F8000008F1020811E0A068B0F56F
:10183000805F03D0A06828B9206918B92068406883
:10184000287004E02068406800F07F0028706D1C5C
:10185000E08D401EE085E08D0028CFD1202084F867
:1018600042000020AFE70220ADE72DE9F84F044623
:101870000E46174699464FF0000A94F8410020287A
:1018800050D106B117B90120BDE8F88F002060647F
:10189000212084F84100FEF7FFFE8246A784E784FA
:1018A000A068B0F5805F04D1206910B90025B0466A
:1018B00002E035464FF000081EE05346002280212A
:1018C0002046CDF8009000F079FD20B1202084F86A
:1018D00041000320D8E745B9B8F80000C0F308007C
:1018E0002168486008F1020803E028782168486010
:1018F0006D1CE08C401EE084E08C0028DDD1534656
:10190000002240212046CDF8009000F057FD20B184
:10191000202084F841000320B6E7202084F841000D
:101920000020B1E70220AFE700BFFEE701460868EC
:101930004069C0F38020B0B16FF480600A685061E4
:1019400000200863202081F83D00002081F83E003F
:10195000086C40F00400086400BF002081F83C00DF
:1019600000BF012070470020FCE700002DE9F8438C
:1019700004460D4617469846E66A082E04D0012E06
:1019800002D016F5803F06D12068006840F48070D0
:101990002168086008E0206B122805D120680068E3
:1019A00040F48070216808603B4600224FF001112E
:1019B0002046CDF8008000F06CF860B12068006827
:1019C00000F48070B0F5807F02D14FF40070206485
:1019D0000320BDE8F8832069B0F5804F04D105F0FD
:1019E000FE002168086112E005F44070F02141EA30
:1019F000E0102168086143463A460B49204600F052
:101A0000A7F808B10120E4E7E8B22168086143467D
:101A10003A460549891F204600F09AF808B101208E
:101A2000D7E70020D5E700000800010070B50446A4
:101A30000D46164625E02046FFF778FF08B1012045
:101A400070BD681CE8B1FEF727FE801BA84200D8D5
:101A5000BDB920684069C0F3800090B900202063C0
:101A6000202084F83D00002084F83E00206C40F0E7
:101A70002000206400BF002084F83C0000BF01204B
:101A8000DEE720684069C0F380000028D3D0002042
:101A9000D6E72DE9F04104460D4617461E46DDF80F
:101AA000188038E0701CA8B3FEF7F6FDA0EB080024
:101AB000B04200D876BBC5F3074001280AD12068A0
:101AC0004069A9B20840A9B2884201D101200BE0C7
:101AD000002009E020688069A9B20840A9B28842C4
:101AE00001D1012000E00020B84214D10020206381
:101AF000202084F83D00002084F83E00206C40F057
:101B00002000206400BF002084F83C0000BF0120BA
:101B1000BDE8F081FFE7C5F3074001280AD120683E
:101B20004069A9B20840A9B2884201D101200BE066
:101B3000002009E020688069A9B20840A9B2884263
:101B400001D1012000E00020B842ABD00020DFE747
:101B50002DE9F04104460D4616461F4658E0206820
:101B60004069C0F38020E8B12068006840F400704C
:101B7000216808606FF4806021684861002020635C
:101B8000202084F83D00002084F83E00206C40F0C6
:101B90000400206400BF002084F83C0000BF012046
:101BA000BDE8F081701C90B3FEF776FDC01BB0421B
:101BB00000D866BBC5F3074001280AD120684069F8
:101BC000A9B20840A9B2884201D101200BE000204F
:101BD00009E020688069A9B20840A9B2884201D111
:101BE000012000E0002090B900202063202084F82C
:101BF0003D00002084F83E00206C40F0200020646E
:101C000000BF002084F83C0000BF0120C8E7FFE7C8
:101C1000C5F3074001280AD120684069A9B20840ED
:101C2000A9B2884201D101200BE0002009E0206820
:101C30008069A9B20840A9B2884201D1012000E020
:101C4000002000288BD00020AAE770B504460D467E
:101C5000164625E02046FFF769FE08B1012070BD59
:101C6000681CE8B1FEF718FD801BA84200D8BDB97A
:101C700020684069C0F3C01090B900202063202084
:101C800084F83D00002084F83E00206C40F02000E5
:101C9000206400BF002084F83C0000BF0120DEE784
:101CA00020684069C0F3C0100028D3D00020D6E7D8
:101CB00070B5044600263BE0002509E004F110025F
:101CC00032F8151054F825000122FEF7DFFC6D1CD8
:101CD000042DF3DB04F1100232F8161054F826003C
:101CE0000022FEF7D3FC00251FE004F1240232F8A5
:101CF00015100C3A52F82500FEF7C0FCA0B91420CC
:101D0000FEF718FB00BF04F1240232F815100C3A5C
:101D100052F82500FEF7B2FC0028F4D006EB46008E
:101D200005490844405D70BD6D1C032DDDDB761C4C
:101D3000042EC1DB0020F6E70000002000B585B0CE
:101D40000020019002900390049000BF41488069F8
:101D500040F010003F4988610846806900F010009B
:101D6000009000BF00BF00BF0846806940F020001F
:101D700088610846806900F02000009000BF00BF25
:101D800000BF0846806940F0040088610846806909
:101D900000F00400009000BF00BF00BF084680694B
:101DA00040F0080088610846806900F00800009053
:101DB00000BF00BF00224FF400512748FEF766FC29
:101DC00000224FF4D1612548FEF760FC002240F26A
:101DD00003412348FEF75AFC4FF4005001900120C4
:101DE0000290002003900220049001A91A48FEF7F7
:101DF000B5FA76200190002002900120039001A9FD
:101E00001648FEF7ABFA4FF4D16001900120029022
:101E1000002003900220049001A91048FEF79EFACA
:101E200040F2034001900120029000200390022024
:101E3000049001A90A48FEF791FA4FF4006001905E
:101E4000002002900120039001A90548FEF786FAC0
:101E500005B000BD00100240001001400008014024
:101E6000000C014010B50B480B4908600B48486056
:101E7000002109488160C1604FF480410161002167
:101E800041618161C1610162FEF70CFC08B1FEF79E
:101E90004DFA10BD0054004070000020A0860100E3
:101EA00000B591B000200F9010901C2108A8FEF7FB
:101EB0008BF920216846FEF787F9244824490860F9
:101EC0004720486000212248816040F2E731C1602C
:101ED00000210161416180218161FFF725FB08B18B
:101EE000FEF724FA00200F9010900FA91848FFF772
:101EF0002BFA08B1FEF71AFA602008904FF47A70B6
:101F0000099000200A900B900C900D900E900022EA
:101F100008A90F48FFF786FA08B1FEF707FA002074
:101F2000009001900290039004904FF400500590AF
:101F30000020079069460648FFF7CCF908B1FEF784
:101F4000F5F90348FFF742FA11B000BD002C01403B
:101F5000C400002010B50B480B4908604FF4E13075
:101F60004860002108488160C16001610C21416125
:101F700000218161C161FFF78DFB08B1FEF7D6F941
:101F800010BD0000003801400C01002000BFFEE73A
:101F900000BFFEE77047000008B508490968C90896
:101FA0004FF47A72B1FBF2F14143009100BF00BFE0
:101FB00000994A1E00920029F9D108BD6C0000204A
:101FC000704710B5FEF754FD10BD00B58FB0282145
:101FD00005A8FEF7F9F814216846FEF7F5F8012088
:101FE000059000040690002007900120099002202F
:101FF0000C90C1030D914FF4E0110E9105A8FEF76E
:102000001DFF08B1FEF792F90F2000900220019009
:10201000002002904FF48060039000200490022181
:102020006846FEF7E7FD08B1FEF780F90FB000BD86
:102030007047000010B502681C4B984208D0B0F100
:10204000804F05D01A4B984202D01A4B984203D1C8
:1020500022F070024B681A43144B984208D0B0F13A
:10206000804F05D0124B984202D0124B984203D1B8
:1020700022F44072CB681A4322F080034C6943EA91
:10208000040202608B68C3620B688362074B98424C
:1020900001D10B69036301234361036903F0010369
:1020A0001BB1036923F00103036110BD002C014043
:1020B000000400400008004030B501F01F05012475
:1020C00004FA05F3046A9C430462046A01F01F05E4
:1020D00002FA05F52C43046230BD000030B5026AF7
:1020E000056A25F0010505624368846924F07004DF
:1020F00024F003040D682C4322F002028D682A4369
:102100000D4DA84206D100BF22F00802CD682A4337
:1021100022F00402084DA84207D123F4807323F46F
:1021200000734D692B438D692B43436084614D6877
:102130004563026230BD0000002C014030B5026AE8
:10214000056A25F0100505624368846924F4E044BB
:1021500024F440740D6844EA052422F020028D68BE
:1021600042EA05120E4DA84207D100BF22F08002BC
:10217000CD6842EA051222F04002094DA84209D179
:1021800023F4806323F400634D6943EA85038D697A
:1021900043EA8503436084614D688563026230BD14
:1021A000002C014030B5026A056A25F4807505628D
:1021B0004368C46924F0700424F003040D682C43C0
:1021C00022F400728D6842EA05220F4DA84207D121
:1021D00000BF22F40062CD6842EA052222F4806248
:1021E000094DA84209D123F4805323F400534D69CB
:1021F00043EA05138D6943EA05134360C4614D68E2
:10220000C563026230BD0000002C014030B5036A96
:10221000056A25F4805505624468C26922F4E042EB
:1022200022F440720D6842EA052223F400538D68BF
:1022300043EA0533064DA84204D124F480444D6995
:1022400044EA85144460C2614D680564036230BD90
:10225000002C014000BF00BF02680C3252E8002F82
:1022600022F4907102680C3242E80013002BF3D183
:1022700000BF00BF00BF0268143252E8002F22F0F6
:1022800001010268143242E80013002BF3D100BFB1
:10229000016B01290ED100BF00BF02680C3252E869
:1022A000002F22F0100102680C3242E80013002BCC
:1022B000F3D100BF202180F8421000210163704754
:1022C00070B504462168096921F44051E268114360
:1022D000226811612269A1681143626941EA02051D
:1022E0002168C96841F20C62914329432268D16098
:1022F0002168496921F44071A26911432268516142
:102300002D4A2168914202D1FEF750FD01E0FEF70F
:102310003DFD00EBC00101EB001162689200B1FBD2
:10232000F2F100EBC00202EB001263689B00B2FB0B
:10233000F3F26423B2FBF3F202EBC20303EB0212EB
:10234000A1EB8201322202EB01116422B1FBF2F116
:1023500001F0F00100EBC00202EB001263689B0089
:10236000B2FBF3F26423B2FBF3F201EB021200EBD7
:10237000C00101EB001163689B00B1FBF3F100EBBE
:10238000C00303EB00136668B600B3FBF6F36426E4
:10239000B3FBF6F303EBC30606EB0313A1EB8301D8
:1023A000322303EB01116423B1FBF3F101F00F01C0
:1023B00011442268916070BD003801402DE9F84356
:1023C00004460D4617469846089E31E0701C70B3CF
:1023D000FEF762F9A0EB0800B04200D816B903205E
:1023E000BDE8F8832068C06800F00400F8B1802DD3
:1023F0001ED0402D1CD020680068C0F3C000B0B1D2
:1024000000BF0020009020680068009020684068AD
:10241000009000BF00BF2046FFF71CFF082060644B
:1024200000BF002084F8400000BF0120D8E7FFE78C
:10243000206800682840A84201D1012000E0002067
:10244000B842C3D00020CBE700BFFEE702480068D7
:10245000C0F30220704700000CED00E010B500282A
:1024600004DB0A07130E054A135406E00A07140E8C
:10247000034A00F00F031B1FD45410BD00E400E01A
:1024800018ED00E070B505468021284600F087F879
:10249000002404E02021284600F0A4F8641C502CFD
:1024A000F8DB70BD2DE9F04107460C46164636B103
:1024B000012E08D0022E0AD0032E10D10BE004F119
:1024C0008000C5B20DE004F1C000C5B209E004F11E
:1024D0009400C5B205E004F1D400C5B201E0BDE846
:1024E000F08100BF2946384600F059F800BFF6E7F2
:1024F00010B504463220FDF71DFF3021204600F0C4
:102500004EF80520FDF716FF3021204600F047F871
:102510000120FDF70FFF3021204600F040F80A208F
:10252000FDF708FF2021204600F039F80A20FDF7CA
:1025300001FF2821204600F032F80120FDF7FAFEC5
:102540000821204600F02BF80120FDF7F3FE0121C1
:10255000204600F024F80220FDF7ECFE062120467C
:1025600000F01DF80120FDF7E5FE0C21204600F0EB
:1025700016F810BD70B504460D462946204600F0F9
:1025800031F870BD70B505460C4604E014F8011B27
:10259000284600F027F820780028F7D170BD2DE9F3
:1025A000FC4104460D4605F0F006F02000EA051750
:1025B00046F00C008DF8040046F008008DF8050088
:1025C00047F00C008DF8060047F008008DF8070072
:1025D000642000902179042301AA2068FEF74AF9BB
:1025E000BDE8FC812DE9FC4104460D4605F0F006EE
:1025F000F02000EA051746F00D008DF8040046F0C3
:1026000009008DF8050047F00D008DF8060047F031
:1026100009008DF80700642000902179042301AAA5
:102620002068FEF727F9BDE8FC8100001FB5FEF722
:102630002BFAFFF7CAFCFFF781FBFFF731FCFFF72E
:1026400089FCFFF70FFC0021F848FEF7B9FFF748B7
:102650000068406C40F40040F44909684864F4485C
:10266000F44908604E2008710846FFF741FF00F06A
:10267000E5FB01225103F048FEF708F84120FDF781
:102680004BFE0020009001900290039006200090E5
:1026900000200190012002906946E848FDF75EFEA7
:1026A0006CE3E7480078012855D1E6480078012816
:1026B00017D00120E3490870DE48FFF7E3FE00224F
:1026C0001146DC48FFF7EEFEDFA1DA48FFF75AFFBC
:1026D00001220021D748FFF7E5FEDFA1D548FFF72B
:1026E00051FF40F2E730D1490968486301225102A5
:1026F000D248FDF7CBFF00224FF48061CF48FDF7B1
:10270000C5FF0221CD48FDF7B9FF012808D0FDF72C
:10271000C3FFD6490968401A43F69821884219D95F
:102720000020C2490968486300224FF40071C34881
:10273000FDF7ACFF00224FF48061C048FDF7A6FF13
:102740000220BF490870FDF7A7FFC84908600020B4
:10275000BC490870CCE0BA480078022839D1B948A1
:102760000078022817D00220B6490870B148FFF758
:1027700089FE00221146AF48FFF794FEBCA1AD4888
:10278000FFF700FF01220021AA48FFF78BFEBBA143
:10279000A848FFF7F7FE4FF40061BD48FDF76EFF54
:1027A00018B9FDF779FFB1490860FDF775FFAF492A
:1027B0000968401A41F288318842CBD90320A049E8
:1027C0000870FDF769FFA949086000209D4908705D
:1027D0008EE09B4800780328BCD19A4800780328F3
:1027E00017D00320974908709248FFF74BFE00224C
:1027F00011469048FFF756FEA6A18E48FFF7C2FE8D
:10280000012200218B48FFF74DFE93A18948FFF775
:10281000B9FE4FF400619E48FDF730FFD0B90020AB
:1028200082490968486300224FF400718348FDF72C
:102830002DFF00224FF480618048FDF727FF012023
:102840007F490870FDF728FF8849086000207D490E
:1028500008704DE040F2E73074490968486300228F
:102860004FF400717548FDF711FF01229102734882
:10287000FDF70CFF04217148FDF700FF012808D087
:10288000FDF70AFF79490968401A43F69821884202
:102890002ED9002065490968486300224FF4007171
:1028A0006648FDF7F3FE00224FF480616348FDF7B0
:1028B000EDFE012251036048FDF7E8FE4C20FDF7D4
:1028C0002BFD00205E4908705E4908705948FFF7EB
:1028D000D9FD002211465748FFF7E4FD72A1554883
:1028E000FFF750FE4FF47A70FDF724FD00F0A6FAD2
:1028F00000BF002003906F480068006803906D4897
:1029000000684068039000BF00BF052301226A49A8
:102910006848FEF749FF00283CD1674800784F28F7
:1029200031D1002065490860654908604148FFF7DA
:10293000A9FD002211463F48FFF7B4FD61A13D48C3
:10294000FFF720FE012200213A48FFF7ABFD60A10E
:102950003848FFF717FE4FF44870FDF7EBFC0022F4
:102960004FF400513448FDF791FE5520FDF7D4FC9B
:10297000002034490870012031490870FDF78CFEB1
:102980003A49086006E04C480078502802D14120BE
:10299000FDF7C2FC4948006801280FD1FDF77CFE15
:1029A0004F490968401A40F6B831884206D90020DC
:1029B000434908604149086000F040FA4948FFF780
:1029C00077F90446002C1AD0FDF766FE44490860EA
:1029D0003A48006848BB312C12D1012037490860C1
:1029E0000020374908601348FFF74CFD00221146CC
:1029F0001048FFF757FD3CA10E48FFF7C3FDBCE1AF
:102A0000322CFCD10B48FFF73DFD3BA10948FFF7F5
:102A1000B9FD002201210748FFF744FD3AA105480E
:102A2000FFF7B0FD00F00AFAA7E171E0C400002052
:102A3000700000200C000020001001400008014040
:102A4000140000201C0000203E3E2044414E472040
:102A50004D4F204355410000446F6E6720636F2047
:102A600064616E67207175617900000018000020B4
:102A7000435541204441204D4F00000043686F20E2
:102A80006E67756F692064692076616F2E2E2E0047
:102A9000000C01403E3E2044414E4720444F4E47EB
:102AA000204355410000000043554120444120444B
:102AB0004F4E47000C0100201D0000202800002080
:102AC000240000204C454E482054552057454200D4
:102AD0003E3E204D6F206B686F612E2E2E00000051
:102AE0002C000020340000204E686170206D61745D
:102AF000206B6861753A0000567569206C6F6E67CF
:102B000020717565740000007468652E2E2E00001B
:102B10009B480068012887D1232C7DD1002099494A
:102B2000994A1268885499499648FDF775FB002820
:102B300073D1934908609449086095490880954885
:102B4000FFF7A0FC94A19348FFF71CFD0122002190
:102B50009048FFF7A7FC93A18E48FFF713FD46208E
:102B6000FDF7DAFBFDF798FD0646002500BF0020C3
:102B7000029090480068006802908E4800684068A3
:102B8000029000BF00BF1DE0C823012203A98948AD
:102B9000FEF70AFE48B99DF80C004F2800D1012528
:102BA0009DF80C00582800D1022500BF002002909B
:102BB00080480068006802907E4800684068029083
:102BC00000BF00BFFDF768FD801B44F6206188420E
:102BD00001D2002DD8D0012D2ED16E48FFF752FC26
:102BE000002211466B48FFF75DFC73A16948FFF7AF
:102BF000C9FC012200216748FFF754FC72A1654817
:102C0000FFF7C0FC4FF44870FDF794FB0022690306
:102C10007148FDF73BFD01E077E03EE05520FDF710
:102C20007BFB00206D49087001206D490870FDF79D
:102C300033FD6C4908602FE0022D1BD15548FFF78A
:102C400021FC002211465348FFF72CFC66A1514895
:102C5000FFF798FC012200214E48FFF723FC66A1F4
:102C60004C48FFF78FFC40F6B830FDF763FB00F0EF
:102C7000E5F811E04748FFF705FC002211464548FA
:102C8000FFF710FC60A14348FFF77CFC4FF47A701B
:102C9000FDF750FB00F0D2F833E03D480088401CBF
:102CA0003B4908803B48FFF7EDFB5BA13948FFF744
:102CB00069FC4FF47A70FDF73DFB35480088032826
:102CC00017DB3448FFF7DEFB57A13248FFF75AFC09
:102CD000012208215748FDF7D9FC4FF4FA60FDF7AF
:102CE00029FB002208215348FDF7D0FC0020284989
:102CF00008802848FFF7C6FBAFF214212548FFF7EC
:102D000041FC00202049086037E02A2C1ED11E48D3
:102D10000068002831DD1C480068401E1A49086020
:102D200000211848184A1268815401221648016887
:102D30001848FFF7B7FB40A11648FFF723FC012214
:102D4000114801681348FFF7ADFB16E00E48006814
:102D5000142812DA0C4801680068401C0A4A106006
:102D60000848445410460068411E01220948FFF7F4
:102D700099FB2A210748FFF7FDFB00BF91E4000003
:102D80002800002054010020240000201F00002003
:102D9000300000200C0000204C6F7020313A204F92
:102DA0004B2100004E68696E2076616F2063616D73
:102DB000657261000C010020586163206D696E68C6
:102DC000204F4B21000000003E3E204D6F206375D8
:102DD000612E2E2E00000000001001401C0000207B
:102DE0001400002018000020584D207468617420E1
:102DF000626169203378210054616D206B686F61D6
:102E00002033732E2E2E00004865742074686F697D
:102E1000206769616E210000536169206D61742033
:102E20006B6861750000000054616D206B686F6114
:102E300020327300000801402000000010B5144843
:102E4000FFF720FB002211461148FFF72BFB11A1D1
:102E50000F48FFF797FB012200210D48FFF722FBE7
:102E600011A10B48FFF78EFB022200210848FFF753
:102E700019FB12A10648FFF785FB03220021044835
:102E8000FFF710FB11A10248FFF77CFB10BD00000B
:102E90000C000020312E204E686170206D6174207E
:102EA0006B68617500000000322E2051756574203A
:102EB00064696E682064616E68000000332E2054DF
:102EC00068696574206C617000000000342E205425
:102ED000686F61740000000002030405060708091A
:102EE0000A0B0C0D0E0F1010010200000000000074
:102EF00000000102030406070809000000000102A7
:102F000003040000242F00080000002070000000CF
:102F100028010008942F00087000002060070000BE
:102F2000440100083132333435363738392A3023FA
:102F30000000000000000000000000000000000091
:102F400000000031323334000000000000000000B7
:102F50000000000000000000000C0140000C0140D7
:102F6000000C014000080140000402000100800044
:102F70000008014000080140000801404000200016
:102F80001000000000000000100000000100000020
:042F900000127A00B1
:04000005080000ED02
:00000001FF
